:100000000C94F10D0C94380E0C94380E0C94380EA0
:100010000C94380E0C94380E0C94380E0C94380E48
:100020000C94380E0C94380E0C94461E0C94021E40
:100030000C9435320C94380E0C94380E0C94380E07
:100040000C94380E0C94380E0C94380E0C94380E18
:100050000C945C320C941D1F0C94380E0C94380ECA
:100060000C94380E0C94380E0C94380E0C94380EF8
:100070000C94380E0C94380E0C94380E0C94380EE8
:100080000C94380E0C94380E0C94380E0C94380ED8
:100090000C94380E0C94380E0C94380E0C94380EC8
:1000A0000C94380E0C94380E0C94380E050109800F
:1000B000A101850319012AB700150126B700950192
:1000C00075108100C0050C0901A101850419012AE0
:1000D000A002150126A002950175108100C00660DE
:1000E000FF0961A1010962150026FF00952075082E
:1000F00081020963150026FF00952075089102C052
:1001000005010906A101050719E029E715002501E8
:10011000950875018102950175088101050719008F
:1001200029FF150026FF00950675088100050819AE
:10013000012905950575019102950175039101C08D
:1001400000000000000000000000000000000000AF
:10015000000000000000000000000000000000009F
:10016000000000000000000000000000000000008F
:10017000000000808000000000008040402020201F
:1001800020101010100804020101020C3040800001
:10019000000000000000F8F8F8F8000000000080FF
:1001A00080000000000000000000000000000000CF
:1001B00000000000000000000000000000808080BF
:1001C000000000000000000000000000000000002F
:1001D000000000000000000000000000000000001F
:1001E000000000000000000000000000000000000F
:1001F000001EE10000010102028180800000808079
:10020000000000000000000000800030300000010D
:100210000102040810204387070100B8BCBE9F5F9D
:100220005F4F4C20202020101010100808080808EC
:10023000040404040402020202010101010000009E
:1002400000000000000000000000000000000000AE
:10025000000000000000000000000000000000009E
:10026000000000000000000000000000000000008E
:1002700080700C030000180605989984437C414166
:100280004040202122121111110908080808040415
:1002900008081010101010110F013D7CFCFCFCFC34
:1002A000FC3C0C000000000000000000000000000A
:1002B000000000000000000000000000000000003E
:1002C000000000000000000000000000000000002E
:1002D00000808080808040404040402020202020BE
:1002E0001010101010080808080804040404040280
:1002F00003020201010101010100000000000000F1
:1003000000000000000000000000000000000000ED
:1003100000000000000000000000000000010303D6
:1003200000000000000000000000000000000000CD
:1003300000000000000000000000000000000000BD
:1003400000000000000000000000000000000000AD
:10035000000000000000000000000000000000009D
:10036000000000000000000000000000000000008D
:10037000000000808000000000008040402020201D
:1003800020101010100804020101020C30408000FF
:10039000000000000000000000000000000000005D
:1003A000000000000000000000000000000000004D
:1003B00000000000000000000000000000808080BD
:1003C000000000000000000000000000000000002D
:1003D000000000000000000000000000000000001D
:1003E000000000000000000000000000000000000D
:1003F000001EE100000101020201000000008080F7
:10040000000000000000000000800030300000010B
:10041000E11A06093135018A7C0000808080804025
:100420004040402020202010101010080808080824
:10043000040404040402020202010101010000009C
:1004400000000000000000000000000000000000AC
:10045000000000000000000000000000000000009C
:10046000000000000000000000000000000000008C
:1004700080700C030000000000000000000001017B
:100480000040A021221211111109080808080404D3
:100490000404040402020201010101000000000042
:1004A000000000000000000000000000000000004C
:1004B000000000000000000000000000000000003C
:1004C000000000000000000000000000000000002C
:1004D00000808080808040404040402020202020BC
:1004E000101010101008080808080404040404027E
:1004F000037A7A7979797939310202040408080893
:1005000088888780000000000000000000000000D4
:1005100000000000000000000000000000000000DB
:1005200000000000000000000000000000000000CB
:1005300000000000000000000000000000000000BB
:1005400000000000000000000000000000000000AB
:10055000000000000000000000000000000000009B
:10056000000000000000000000000000000000008B
:10057000000000808000000000008040402020201B
:1005800020101010100804020101020C30408000FD
:10059000000000000000000000000000000000005B
:1005A000000000000000000000000000000000004B
:1005B00000000000000000000000000000808080BB
:1005C000000000000000000000000000000000002B
:1005D000000000000000000000000000000000001B
:1005E000000000000000000000000000000000000B
:1005F000001EE10000010102028180800000808075
:100600000000000000000000008000303000000109
:10061000E11A06093135018A7C0000808080804023
:100620004040402020202010101010080808080822
:10063000040404040402020202010101010000009A
:1006400000000000000000000000000000000000AA
:10065000000000000000000000000000000000009A
:10066000000000000000000000000000000000008A
:1006700080700C030000180605989984C37C4141E2
:100680004040202122121111110908080808040411
:100690000404040402020201010101000000000040
:1006A000000000000000000000000000000000004A
:1006B000000000000000000000000000000000003A
:1006C000000000000000000000000000000000002A
:1006D00000808080808040404040402020202020BA
:1006E000101010101008080808080404040404027C
:1006F00003020201010101010100000000000000ED
:1007000000000000000000000000000000000000E9
:1007100000000000000000000000000000000000D9
:1007200000000000000000000000000000000000C9
:1007300000000000000000000000000000000000B9
:1007400000000000000000000000000000000000A9
:100750000000000000000000000000000000000099
:100760000000000000000000000000000000000089
:100770000000000000000000000080404020202019
:1007800020101010101008080404040830408000E5
:100790000000000000000000000000000000000059
:1007A0000000000000000000000000000000000049
:1007B00000000000000000000000000000808080B9
:1007C0000000000000000000000000000000000029
:1007D0000000000000000000000000000000000019
:1007E0000000000000000000000000000000000009
:1007F00000186482020202020201000000008080F0
:100800000000000000000000008000303000C0C187
:10081000C1C2040810204080000000808080804019
:100820004040402020202010101010080808080820
:100830000404040404020202020101010100000098
:1008400000000000000000000000000000000000A8
:100850000000000000000000000000000000000098
:100860000000000000000000000000000000000088
:10087000C0380403000000000000000C0C0C0D0147
:100880000040A021221211111109080808080404CF
:1008900008081010101010110F01010000000000D6
:1008A0000000000000000000000000000000000048
:1008B0000000000000000000000000000000000038
:1008C0000000000000000000000000000000000028
:1008D00000808080808040404040402020202020B8
:1008E000101010101008080808080404040404027A
:1008F00003020201010101010102020404080808C7
:1009000008080700000000000000000000000000D0
:1009100000000000000000000000000000000000D7
:1009200000000000000000000000000000000000C7
:1009300000000000000000000000000000000000B7
:1009400000000000000000000000000000000000A7
:100950000000000000000000000000000000000097
:100960000000000000000000000000000000000087
:100970000000000000000000000080404020202017
:1009800020101010101008080404040830408000E3
:100990000000000000000000000000000000000057
:1009A0000000000000000000000000000000000047
:1009B00000000000000000000000000000808080B7
:1009C0000000000000000000000000000000000027
:1009D0000000000000000000000000000000000017
:1009E0000000000000000000000000000000000007
:1009F00000186482020202020201000000008080EE
:100A00000000000000000000008000303000C0C185
:100A1000C1C2040810204080000000808080804017
:100A2000404040202020201010101008080808081E
:100A30000404040404020202020101010100000096
:100A400000000000000000000000000000000000A6
:100A50000000000000000000000000000000000096
:100A60000000000000000000000000000000000086
:100A7000C0380403000000000000000C0C0C0D0145
:100A80000040A021221211111109080808080404CD
:100A900008081010101010110F01010000000000D4
:100AA0000000000000000000000000000000000046
:100AB0000000000000000000000000000000000036
:100AC0000000000000000000000000000000000026
:100AD00000808080808040404040402020202020B6
:100AE0001010101010080808080804040404040278
:100AF00003020201010101010102020404080808C5
:100B000008080700000000000000000000000000CE
:100B100000000000000000000000000000000000D5
:100B200000000000000000000000000000000000C5
:100B300000000000000000000000000000000000B5
:100B400000000000000000000000000000000000A5
:100B50000000000000000000000000000000000095
:100B60000000000000000000000000000000000085
:100B700000000000000000000000008080404040B5
:100B80004020202020100804020204186080000089
:100B90000000000000000000000000000000000055
:100BA0000000000000000000000000000000000045
:100BB00000000000000000000000000000808080B5
:100BC0000000000000000000000000000000000025
:100BD0000000000000000000000000000000000015
:100BE0000000000000000000000000000000000005
:100BF000003CC201010202040402010000000000E6
:100C00000000000000000000000000606000818221
:100C10008284081020408000000000808080804096
:100C2000404040202020201010101008080808081C
:100C30000404040404020202020101010100000094
:100C400000000000000000000000000000000000A4
:100C50000000000000000000000000000000000094
:100C60000000000000000000000000000000000084
:100C700080701906000000000000001818181B03FF
:100C80000040A02224141212120B080808080505BF
:100C900009091010101010110F01010000000000D0
:100CA0000000000000000000000000000000000044
:100CB0000000000000000000000000000000000034
:100CC0000000000000000000000000000000000024
:100CD00000808080808040404040402020202020B4
:100CE0001010101010080808080804040404040276
:100CF00003020201010101010102020404080808C3
:100D000008080700000000000000000000000000CC
:100D100000000000000000000000000000000000D3
:100D200000000000000000000000000000000000C3
:100D300000000000000000000000000000000000B3
:100D400000000000000000000000000000000000A3
:100D50000000000000000000000000000000000093
:100D60000000000000000000000000000000000083
:100D70000000008080000000000080404020202013
:100D800020101010100804020101020C30408000F5
:100D90000000000000000000000000000000000053
:100DA0000000000000000000000000000000000043
:100DB00000000000000000000000000000808080B3
:100DC0000000000000000000000000000000000023
:100DD0000000000000000000000000000000000013
:100DE0000000000000000000000000000000000003
:100DF000001EE100000101020201000000008080ED
:100E00000000000000000000008000303000C0C181
:100E1000C1C2040810204080000000808080804013
:100E2000404040202020201010101008080808081A
:100E30000404040404020202020101010100000092
:100E400000000000000000000000000000000000A2
:100E50000000000000000000000000000000000092
:100E60000000000000000000000000000000000082
:100E700080700C03000000000000000C0C0C0D0141
:100E80000040A021221211111109080808080404C9
:100E900008081010101010110F01010000000000D0
:100EA0000000000000000000000000000000000042
:100EB0000000000000000000000000000000000032
:100EC0000000000000000000000000000000000022
:100ED00000808080808040404040402020202020B2
:100EE0001010101010080808080804040404040274
:100EF00003020201010101010102020404080808C1
:100F000008080700000000000000000000000000CA
:100F100000000000000000000000000000000000D1
:100F200000000000000000000000000000000000C1
:100F300000000000000000000000000000000000B1
:100F400000000000000000000000000000000000A1
:100F50000000000000000000000000000000000091
:100F60000000000000000000000000000000000081
:100F70000000000000000000000080404020202011
:100F800020101010100808040202020438408000EB
:100F90000000000000000000000000000000000051
:100FA0000000000000000000000000000000000041
:100FB00000000000000000000000000000808080B1
:100FC0000000000000000000000000000000000021
:100FD0000000000000000000000000000000000011
:100FE0000000000000000000000000000000000001
:100FF000001CE201010202020201000000008080E8
:101000000000000000000000008000303000C0C17F
:10101000C1C2040810204080000000808080804011
:101020004040402020202010101010080808080818
:101030000404040404020202020101010100000090
:1010400000000000000000000000000000000000A0
:101050000000000000000000000000000000000090
:101060000000000000000000000000000000000080
:1010700080700C03000000000000000C0C0C0D013F
:101080000040A021221211111109080808080404C7
:1010900008081010101010110F01010000000000CE
:1010A0000000000000000000000000000000000040
:1010B0000000000000000000000000000000000030
:1010C0000000000000000000000000000000000020
:1010D00000808080808040404040402020202020B0
:1010E0001010101010080808080804040404040272
:1010F00003020201010101010102020404080808BF
:1011000008080700000000000000000000000000C8
:1011100000000000000000000000000000000000CF
:1011200000000000000000000000000000000000BF
:1011300000000000000000000000000000000000AF
:10114000000101010101010101010202020202028A
:10115000020202030303030303030304040404045D
:101160000404050505050506060606060707070724
:101170000708080808090909090A0A0A0B0B0B0CD9
:101180000C0C0D0D0D0E0E0E0F0F0F101011111176
:1011900012121313141415151616171718181919F7
:1011A0001A1A1B1B1C1D1D1E1E1F2020212222235C
:1011B0002424252626272829292A2B2C2D2D2E2F9D
:1011C00030313232333435363738393A3B3C3D3EB4
:1011D0003F404142434445464748494A4C4D4E4FA3
:1011E00050515354555658595A5B5D5E5F61626465
:1011F000656668696B6C6D6F7072737577787A7BF2
:101200007D7E8082838587888A8C8E8F9193959648
:10121000989A9C9EA0A2A3A5A7A9ABADAFB1B3B568
:10122000B7BABCBEC0C2C4C6C9CBCDCFD1D4D6D844
:10123000DBDDDFE2E4E7E9EBEEF0F3F5F8FAFDFFE2
:101240000000000000000000000000010102030493
:101250000506080A0C0F1114181C2024292E3339F6
:101260003F464C535B626A7179818A929AA2AAB214
:10127000B9C1C8CFD5DCE1E7EBF0F4F7FAFCFDFE2D
:10128000FFFEFDFCFAF7F4F0EBE7E1DCD5CFC8C1D7
:10129000B9B2AAA29A928A8179716A625B534C466A
:1012A0003F39332E2924201C1814110F0C0A08066C
:1012B000050403020101000000000000000000001E
:1012C000AA00A8002900A9000000230024001C0097
:1012D0000000000000000000000035001E001F009C
:1012E0002000210022002500260027002D002E00CE
:1012F0002A004C002B0014001A00080015001700EB
:1013000018000C00120013002F00300031003900CB
:1013100004001600070009000A000B000D000E0073
:101320000F00330034002800E1001D001B00060000
:1013300019000500050011001000360037003800C4
:10134000E700E0000000E2002C0000000151000076
:101350002C00000076000000E500E4000100010020
:101360000100005C00003F004000BF5C0000000086
:1013700000000000000001003A003B003C003D007E
:101380003E004100420043004400450001004C0083
:10139000C25CC35CC45C010001000100C05CC15CB4
:1013A000520001000100010001000100C65CC55CA3
:1013B00001000100010001000100500051004F0038
:1013C000010001000100CA5CC95C010001000100CC
:1013D0000100010001000100010001000100010005
:1013E00000000100010000000100000001000000F9
:1013F00001000000010001000100010001000100E6
:1014000000000100010001000000000000000000D9
:1014100000000100010001000100010001000100C5
:1014200001000100010001000100010001000100B4
:1014300001000100010001000100010001000100A4
:101440000100010001000100010001000100010094
:101450000100010001000100010001000100010084
:101460000100010001000100010001000100010074
:101470000100010001000100010001000000010065
:101480000100000001000000010000000100000058
:101490000100010001000100010001000000010045
:1014A0000100010000000000000000000000010039
:1014B0000100010001000100010001000100010024
:1014C0000100010001000100010001000100010014
:1014D0000100010001000100010001000100010004
:1014E00001000100010001000100010001000100F4
:1014F00001000100010001000100010001000100E4
:1015000001000100010001000100010001000100D3
:1015100001000100010001000000010001000000C5
:1015200001000000010000000100000001000100B6
:1015300000AF00AE0000000000000000000000004E
:10154000000000000000000000000000000000009B
:1015500000000000000000007E0F00D4FFFFFFC766
:101560000000007800000000000000002A2B280086
:101570000000000000000000000000000000002942
:10158000000000002C1E3420212224342627252E82
:10159000362D3738271E1F202122232425263333BA
:1015A000362E37381F0405060708090A0B0C0D0EE6
:1015B0000F101112131415161718191A1B1C1D2FB2
:1015C0003130232D350405060708090A0B0C0D0ED2
:1015D0000F101112131415161718191A1B1C1D2F92
:1015E0003130354C00DA0281FFD9F1DB20A4A62E80
:1015F000AF00A0C000A1C800AED580A81FD3004096
:101600008D142000783C1E09025B00030100A0FA43
:101610000904000001030101000921110100012258
:1016200040000705810308000A09040100020300C5
:101630000000092111010001222200070582032078
:101640000001070503032000010904020001030053
:101650000000092111010001223200070584032046
:10166000000A1201100100000008574B4C570100FE
:10167000010200011603570061006E00640065005E
:1016800072006C0061006E006400000010034B00EB
:101690006900770069004B006500790000000403D1
:1016A00009040000000000003E5B4F5B3E003E6B03
:1016B0004F6B3E001C3E7C3E1C00183C7E3C1800DC
:1016C0001C577D571C001C5E7F5E1C0000183C18D8
:1016D0000000FFE7C3E7FF00001824180000FFE741
:1016E000DBE7FF0030483A060E002629792926005C
:1016F000407F05050700407F05253F005A3CE73C39
:101700005A007F3E1C1C0800081C1C3E7F0014224F
:101710007F2214005F5F005F5F0006097F017F008A
:10172000006689956A0060606060600094A2FFA214
:10173000940008047E04080010207E201000080891
:101740002A1C0800081C2A0808001E10101010008F
:101750000C1E0C1E0C0030383E383000060E3E0EBB
:10176000060000000000000000005F00000000070D
:1017700000070000147F147F1400242A7F2A12001F
:1017800023130864620036495620500000080703FE
:101790000000001C224100000041221C00002A1C05
:1017A0007F1C2A0008083E080800008070300000F6
:1017B0000808080808000000606000002010080405
:1017C00002003E5149453E0000427F400000724900
:1017D000494946002141494D33001814127F100039
:1017E0002745454539003C4A494931004121110905
:1017F0000700364949493600464949291E0000007C
:1018000014000000004034000000000814224100D1
:101810001414141414000041221408000201590980
:1018200006003E415D594E007C1211127C007F493A
:10183000494936003E41414122007F4141413E003D
:101840007F49494941007F09090901003E41415151
:1018500073007F0808087F0000417F41000020409E
:10186000413F01007F08142241007F40404040007A
:101870007F021C027F007F0408107F003E4141412F
:101880003E007F09090906003E4151215E007F09A3
:101890001929460026494949320003017F01030006
:1018A0003F4040403F001F2040201F003F40384045
:1018B0003F006314081463000304780403006159B3
:1018C000494D4300007F41414100020408102000BF
:1018D000004141417F0004020102040040404040B9
:1018E00040000003070800002054547840007F287F
:1018F00044443800384444442800384444287F0095
:1019000038545454180000087E09020018A4A49CFE
:1019100078007F080404780000447D4000002040E7
:10192000403D00007F102844000000417F4000003F
:101930007C04780478007C0804047800384444442B
:101940003800FC182424180018242418FC007C08F3
:101950000404080048545454240004043F44240060
:101960003C4040207C001C2040201C003C4030407B
:101970003C004428102844004C9090907C00446423
:10198000544C44000008364100000000770000007D
:101990000041360800000201020402003C26232612
:1019A0003C00000000000000404040F0F8F8FF3824
:1019B000FFF8F83FF8F8FF38FFF8F8F04040400033
:1019C000000000000080C0C0C0800000C0C08000D7
:1019D000000080C0C000C0C0000080C0C000000087
:1019E0000000C0C0C0C0C000C0C0000000000000B7
:1019F00000000000000000000000000000000000E7
:101A000000000000000000000000000000000000D6
:101A100000000000000000000000000000000000C6
:101A200000C0F0F8FC3E1E06010000007F4141416D
:101A30007F007F4141417F000080C0E07E5B4F5BC3
:101A4000FEC00000C000DCD7DEDEDED7DC00C00058
:101A50000000000000000000000000000000000086
:101A60000000000000000000494949FFFFFFFFE0BF
:101A7000DFBFBF00BFBFDFE0FFFFFFFF49494900F5
:101A8000000000001F3F6060E0BF1F007F7F071E57
:101A9000381E077F7F007F7F0E1F3B7160000000B4
:101AA00000007F7F0C0C0C007E7E007F7E03030015
:101AB0007F7E03037E7E03037F7E000F3E703C0625
:101AC0003C703E0F00327B49493F7E007F7E03031E
:101AD000001E3F69696F2600000000000000000042
:101AE00000030F1F3F3C7870600000007F414141C0
:101AF0007F007F4141417F00307B7F783020203064
:101B0000787F3B0003000F7F0F0F0F7F0F00030054
:101B100000000000000000000000000000000000C5
:101B20000000000000000000010101070F0F7F0FFF
:101B30007F0F0F7E0F0F7F0F7F0F0F070101010037
:101B40000000000000000000000101000000000093
:101B50000000000000000000000000000000000085
:101B60000000000000000000000000000000000075
:101B70000000000000000000000000000000000065
:101B80000000000000000000000000000000000055
:101B90000000000000000000000000000000000045
:101BA0000000000000000000000000000000000035
:101BB0000000000000000000000000000000000025
:101BC0000000000000000000000000000000000015
:101BD0000000000000000000000000000000000005
:101BE000000011241FBECFEFDAE0DEBFCDBF04B688
:101BF00003FE27C08091D9049091DA04A091DB0400
:101C0000B091DC048730904BA740B04BD1F41092D8
:101C1000D9041092DA041092DB041092DC0414BE92
:101C200084B7877F84BF0FB6F894A8958091600031
:101C3000886180936000109260000FBEE0E0F8E3DE
:101C4000099511E0A0E0B1E0E0E3FDE602C00590F7
:101C50000D92AA37B107D9F724E0AAE7B1E001C095
:101C60001D92A93DB207E1F70E94A22B0C945836B1
:101C70000C940000CF93DF934091D7045091D80487
:101C8000415D52409A013E5F21303240C0F020E079
:101C900032E0241B350B6091CF027091D002FC0121
:101CA000CA01240F351FC1E0D0E08217930750F01E
:101CB0007093D0026093CF02DF91CF91089520E01E
:101CC00032E0E9CF4491DC01AF52BD4F5C91451742
:101CD00081F04C93AC01A5E056954795AA95E1F7A4
:101CE000DE0102C0AA0FBB1F4A95E2F7AD016A2BC5
:101CF000752B01963196D9CFE8EDF0E080818E7F8B
:101D000080831092E2001092DA001092E100A0EEBF
:101D1000B0E08C9181608C9380818F77808319BC37
:101D2000A7EDB0E08C918E7F8C9380818F7E808335
:101D30001092AB0208952091E4003091E50095E601
:101D4000A9012091EC00822F817020FF06C08091B4
:101D5000E80080FF06C080E008952091E80022FDA1
:101D60001AC08091B802882389F0853089F080916B
:101D7000EB0085FD0FC02091E4003091E500421793
:101D80005307F9F29150E1F684E0089582E0089556
:101D900083E0089581E00895EF92FF920F931F93DF
:101DA000CF937C018B010E949B0EC82F811117C01D
:101DB0008091E80085FD0BC08091E8008E778093CC
:101DC000E8000E949B0E882399F3C82F08C0F701F2
:101DD00081917F018093F1000150110949F78C2F07
:101DE000CF911F910F91FF90EF9008958091BA02CB
:101DF00087FF13C08091E80082FF06C08091E80051
:101E00008B778093E80004C08091B8028111F2CFF3
:101E100008958091B8028823D9F38091E80080FF6B
:101E2000F8CF8091E8008E77ECCF982F9093E9005F
:101E3000242F762F50E0891731F07091EC0020911B
:101E4000ED005091F00021FD07C09F5F973071F7C2
:101E50008093E90081E008953091EB003E7F30935C
:101E6000EB003091ED003D7F3093ED003091EB00C1
:101E700031603093EB007093EC002093ED005093B1
:101E8000F0002091EE0027FDE0CF80E00895CF9292
:101E9000DF92EF92FF920F931F93CF93DF93C8EDE2
:101EA000D0E088818F7E8883E7EDF0E080818160DB
:101EB000808384E082BF81E08093AB0288818E7F43
:101EC000888302EE10E0F80110821092DA0081EEB1
:101ED000C82ED12CF601108288818F778883888163
:101EE0008068888388818F7D888319BC1092B802AE
:101EF0001092B9021092B7021092B60290EEE92E3B
:101F0000F12CF70180818B7F8083888181608883B9
:101F100042E060E080E00E94150FF60180818E7F34
:101F20008083F801808181608083808188608083E4
:101F3000F70180818E7F8083888180618883DF9133
:101F4000CF911F910F91FF90EF90DF90CF90089568
:101F5000FC018091C0029091C10286179707A0F002
:101F60006115710529F49091E8009E779093E8003F
:101F700090E06115710551F4911108C08091E8005D
:101F800082FF34C080E00895BC01F2CF8091B80296
:101F90008823C1F18530C1F18091E80083FD30C014
:101FA0008091E80082FDEACF8091E80080FFE1CFD8
:101FB0008091F3002091F200382F6115710519F01E
:101FC0002830310558F091E02830310509F090E0D3
:101FD0002091E8002E772093E800CBCF8191809369
:101FE000F100615071092F5F3F4FE7CF8091B80238
:101FF000882341F0853041F08091E80083FFBECF17
:1020000081E0089582E0089583E00895089580E0D6
:10201000089508958091AD0208959C014FB7F894FA
:1020200080915A0290915B02A0915C02B0915D0296
:102030004FBF821B930B08952FB7F89460915A02FB
:1020400070915B0280915C0290915D022FBF0895B8
:1020500080913702811110923702089580913602E3
:1020600090913502892B90913402892B80937C01C9
:1020700090913702992391F0892B80937C0120E085
:102080008EE791E0FC013191CF0131112F5FF1E03A
:1020900084389F07B9F721110E942810E0914E0261
:1020A000F0914F02309731F00280F381E02D8CE700
:1020B00091E009940895EEE7F1E09191891303C04E
:1020C000DF0111971C9291E0E438F907B1F7089508
:1020D000AEE7B1E0EFEF90E02D91821751F0EF3FC6
:1020E00019F4211101C0E92F9F5F9630A9F7EF3F46
:1020F00009F408950E2E000CFF0BE458FE4F828366
:1021000008952DE0929F800D1124982F9770869549
:102110008695869525E0829FF0011124EF5FFD4FA3
:1021200050E040E080E0219130E0092E02C0369579
:1021300027950A94E2F721703327042E01C0220F5D
:102140000A94EAF7822B4F5F5F4F4530510559F7EC
:1021500008952DE0929F800D1124982F977041E0F3
:1021600001C0440F9A95EAF786958695869595E085
:10217000899FF0011124EF5FFD4F90E080E070E057
:102180005191DF0111979B01082E02C036952795CA
:102190000A94E2F7217021952527242325272C93E3
:1021A00001968530910561F7089580910002909124
:1021B000CF01981301C008958F5F8770FACF8823ED
:1021C00041F08095909136028923809336020C94D9
:1021D0002E100895882339F090913602982B909311
:1021E00036020C942E1008952091C1013091C20145
:1021F0002817390771F09093C2018093C101E091D3
:102200004E02F0914F02309721F00084F185E02DCD
:10221000099408952091BF013091C0012817390712
:1022200071F09093C0018093BF01E0914E02F09154
:102230004F02309721F00680F781E02D0994089530
:1022400090E080E00E940A1190E080E00E94F4108B
:1022500010923502109234020C942E106093CA0230
:102260007093CB028093CC029093CD020C942011FA
:102270000F931F936091CA027091CB028091CC02A0
:102280009091CD028B019C010670112722273327E4
:10229000063011052105310529F468601F910F9161
:1022A0000C942E11677FFACF0F931F9341E050E0FB
:1022B00060E070E004C0440F551F661F771F8A95C9
:1022C000D2F7CB01BA0160957095809590950091F9
:1022D000CA021091CB022091CC023091CD02602332
:1022E0007123822393231F910F910C942E119091AF
:1022F00033028095892380933302282F277039F485
:10230000282F082E000C330B9217130621F49091FE
:102310003D0292FF07C08595859585950E945411D1
:102320001092330208950F931F9341E050E060E054
:1023300070E004C0440F551F661F771F8A95D2F7BF
:102340008091CA029091CB02A091CC02B091CD02B3
:102350008A019B01082B192B2A2B3B2BC901B801A1
:102360001F910F910C942E116093380270933902D3
:1023700080933A0290933B020C942011E0914E021C
:10238000F0914F02309721F00190F081E02D0994F7
:1023900080E00895882309F452C0823871F40E94C5
:1023A000BE1181FF4CC089E30E9468100E942E106C
:1023B00089E30E945B100C942E10833859F40E941C
:1023C000BE1180FF3CC083E50E9468100E942E1061
:1023D00083E5EFCF843859F40E94BE1182FF2FC0ED
:1023E00087E40E9468100E942E1087E4E2CF9CEFE1
:1023F000980F913AF0F290E2980F983088F4877035
:1024000021E030E0A90102C0440F551F8A95E2F790
:10241000CA01809590913602892380933602CBCFF2
:102420009BE5980F933020F490E080E00C940A1123
:10243000885A873120F490E080E00C94F4100895DD
:10244000CF92DF92EF92FF928C3724E1920750F403
:1024500069E070E00E94C633CB01FF90EF90DF90FF
:10246000CF900895B0E0A0E0BC01CD016A50774D57
:102470008F4F9F4F982F872F762F662725EF38E2B3
:1024800041E050E00E94EE3369017A01CA01B901CE
:102490000E94AA339B01AC01C701B6010E94AA3376
:1024A000672F782F892F99276115710521E0820701
:1024B000910591F66FEF7FEFCFCF8430E0F481117B
:1024C0001BC090918000977F909380002F98282FB9
:1024D00030E0AFEFBFEF0E943C3423E030E040E05B
:1024E00050E00E94EE33C9010E94201290938D00AB
:1024F00080938C00089583E0909180009860909381
:102500008000E5CF282F220F220F220F90919C02EE
:102510009770922B90939C02987F21E009F420E021
:1025200090919C0220FB90F990939C020C945D1278
:10253000FA01811101C0FB0109948091C502982F15
:102540009E7F29F4817082608093C50208958A304D
:10255000E8F381708860F8CFAF92BF92DF92EF927C
:10256000FF920F931F93CF93DF93082F162FE9014C
:10257000E42FF0E0E05CFE4E611110C0E4915E2FAC
:102580004E2F4983E8835A83DF91CF911F910F919A
:10259000FF90EF90DF90BF90AF900895E62EF12C62
:1025A0004491D42EE42FF0E026E0829FC001112454
:1025B0002FEF30E0B9010E94C633802F90E0880FE2
:1025C000991F55E5569FD001579FB00D11248A1BC6
:1025D0009B0B982F990F890F5901AE18BF08AE9E1B
:1025E000D001AF9EB00DBE9EB00D11245B2F189F81
:1025F00080011124012F11275901A01AB10AAE9EA2
:102600008001AF9E100DBE9E100D11245901A81A15
:10261000B108AE9CC001AF9C900DBE9C900D1124E2
:10262000892F9927281B390B2E9FC0012F9F900DB2
:102630003E9F900D1124E92F62307105A1F050F4F6
:102640006115710509F49DCF6130710581F0EB2FA3
:10265000512F97CF6430710569F080F066307105B5
:1026600009F48FCFF4CFE42F4B2F592F8ACFE42FCB
:10267000412F87CFEB2F542F492F83CF4B2F5D2D29
:10268000E12F7FCFF894E82FE295EF70F0E031A1D1
:10269000282F2F7081E090E001C0880F2A95EAF77B
:1026A000982F9095932391A392A1892B82A378943C
:1026B000089590913C0292FF06C0282F287128307F
:1026C000F9F4877F846093FF06C0282F2871283192
:1026D000F1F4877E846120913D0220FF06C0382FEF
:1026E00038713830D9F4877F816021FF06C0282FE8
:1026F00028712831D1F4877E816194FD877E089509
:10270000282F24712430F9F68B7F8860DCCF282FA6
:102710002471243101F78B7E8861DDCF382F317130
:10272000313019F78E7F8860E0CF282F2171213159
:1027300021F78E7E8861E1CF80FF08C0469A81FF35
:1027400007C02E9A82FF06C02D9A08954698F7CFAB
:102750002E98F8CF2D98089510923602EEE7F1E00A
:1027600086E0DF011D928A95E9F70C9420111F93F2
:10277000CF93DF93CDB7DEB7AA970FB6F894DEBF3D
:102780000FBECDBF8AEB92E02091F100DC012D93CA
:10279000CD01B2E0823C9B07B9F78091BB02833048
:1027A00009F471C0B8F4813009F448C0823009F4EA
:1027B000B2C08091E80083FF3AC18091BA02909143
:1027C000BB029A3008F033C1E92FF0E0E65AF94C29
:1027D0000C942F348A3009F48DC08B3009F470C00A
:1027E000893039F78091BA02813219F78091BE029F
:1027F0009091BF02009711F00297D9F68091E800FE
:10280000877F8093E8008091E80082FF37C0909135
:10281000F3008091F200029729F48091F1008B7F00
:10282000813021F48091F1008093AD028091E80025
:102830008B778093E8000E94F60EBBCF8091BA029E
:10284000813A09F0B6CF8091E800877F8093E80055
:102850008091BE029091BF02892B61F468E08EEAFC
:1028600092E070E00E94A80F8091E8008B7780933F
:10287000E8009FCF60E090E080E0F3CF8091B80265
:102880008111C1CF96CF8091BA02813A09F091CFE0
:102890008091BE029091BF02892B09F08ACF80916E
:1028A000E800877F8093E8008091E80080FFFCCFFC
:1028B000809112018093F1008091E8008E77B9CF6A
:1028C0008091BA02813209F074CF8091BE0290915A
:1028D000BF02892B09F06DCF8091E800877F80933C
:1028E000E8000E94F60E8091BC02809312010E94C3
:1028F000AC135FCF8091BA02813209F05ACF809138
:10290000E800877F8093E8000E94F60E8091BD0268
:102910008093AC024ECF8091BA02813A09F049CF40
:102920008091E800877F8093E8008091E80080FF35
:10293000FCCF8091AC02BECF803899F0823809F08C
:1029400076C08091BE028F70873008F070C080938F
:10295000E9008091EB0085FB882780F91092E9005F
:1029600006C08091B6029091B70291118260909159
:10297000E800977F9093E8008093F1001092F100B7
:102980008091E8008E77B5C1882309F4A2C1823016
:1029900009F04DC08091BC028111A6C18091BE0298
:1029A0008F702FEF280F263008F041C08093E90088
:1029B0002091EB0020FF98C1933031F48091EB001F
:1029C00080628093EB0090C19091EB0090619093B6
:1029D000EB0021E030E001C0220F8A95EAF7209356
:1029E000EA001092EA008091EB008860EACF811142
:1029F0001EC01091BC021F778091E3008078812B6C
:102A00008093E3008091E800877F8093E8000E9434
:102A1000F60E8091E80080FFFCCF8091E300806893
:102A20008093E30082E0111183E08093B8028091EB
:102A3000E80083FF0AC08091E800877F8093E80068
:102A40008091EB0080628093EB00AA960FB6F89419
:102A5000DEBF0FBECDBFDF91CF911F91089580588B
:102A6000823028F72091BC023091BD022C3DE3E07A
:102A70003E07A1F583E08A838AE289834FB7F89401
:102A8000DE01139620E03EE051E2E32FF0E05093A8
:102A90005700E49120FF03C0E295EF703F5FEF70B5
:102AA0008E2F90E0EA30C0F0C7968D939D932F5FF4
:102AB000243159F74FBF8091E800877F8093E80069
:102AC0006AE270E0CE0101960E94A80F8091E800B2
:102AD0008B778093E800ABCFC096E7CF8091BE02A2
:102AE0009091BF02432F55274330510509F44AC046
:102AF00078F54130510509F47AC08BE590E0E7E0C4
:102B0000F6E14230510509F092CF2091E800277F8D
:102B10002093E8002091C0023091C10282179307F0
:102B200008F49C0140E02115310509F065C0411110
:102B300063C08091E80082FDC9CF8091B8028823EC
:102B400029F2853019F28091E80083FFF2CFBECFE1
:102B50004132510509F43CC04232510509F067CFBA
:102B60008330910508F063CFFC01EE0FFF1FE3599E
:102B7000FE4F0190F081E02D86599E4FDC018C9133
:102B800090E01AC0332721303105D1F021153105ED
:102B900061F02230310509F04ACFE4E7F6E1E49133
:102BA0008E2F90E0E4E7F6E107C0EEE9F6E1E4916C
:102BB0008E2F90E0EEE9F6E1009709F438CFA5CF2B
:102BC000ECE8F6E1E4918E2F90E0ECE8F6E1F4CF4A
:102BD0008330910508F02BCF880F991FFC01ED5829
:102BE000FE4F0190F081E02D89E090E08ECF82E1F0
:102BF00090E0E2E6F6E189CF8091B802882309F4FB
:102C000065CF853009F462CF8091E80083FD5ECF07
:102C10008091E80082FD8DCF8091E80080FF83CF16
:102C20009091F3008091F2002115310519F0883060
:102C3000910550F041E0089709F040E08091E800EC
:102C40008E778093E8006FCF44914093F1003196E6
:102C5000215031090196E8CF803809F0E8CE809103
:102C6000E800877F8093E8008091B9028093F100AB
:102C700087CE8111DCCE1091BC02123008F0D7CE85
:102C80008091E800877F8093E8001093B9020E944A
:102C9000F60E112311F084E005C08091E30087FD5A
:102CA000FACF81E08093B80242E061EC81E00E94BB
:102CB000150F42E261EC84E00E94150F42E261ECE4
:102CC00082E00E94150F42E260EC83E00E94150F43
:102CD000AECE8091BC02813009F0A9CE81E0933064
:102CE00009F080E08093B7021092E9008091E8003B
:102CF000877F8093E8000E94F60E99CECF93DF93F2
:102D0000C091D704D091D8048A30C1F42091CE026A
:102D1000CE01815D9240622F70E00E94C633281B75
:102D2000822F66E00E94BA33C82FC15018F4DF9199
:102D3000CF91089580E20E947E16F7CF8D30E9F49E
:102D4000C15DD2402091CE02622F70E0CE010E9480
:102D5000C633281B822F9E01280F311D21153240BA
:102D600018F080E0D0E0C0E0C80FD11DCF52DD4F99
:102D7000D093D804C093D704DACF96E0FE01A1ED3A
:102D8000B4E001900D929A95E1F7803E08F458C0A6
:102D900086E0FE0111928A95E9F7C091D704D0919F
:102DA000D80446E050E0BE0181ED94E00E946C340E
:102DB0009E01215D3240892B41F1C90145E0969584
:102DC00087954A95E1F741E050E0BA0102C0660FED
:102DD000771F8A95E2F7CB016091CF027091D00204
:102DE000862B972BB9016B5F7F4FE5E07695679552
:102DF000EA95E1F702C0440F551F6A95E2F7842B6C
:102E0000952B9093D0028093CF022A5F3F4F409141
:102E1000CE02642F70E0C9010E94C633481B4630C1
:102E200010F4240F311D211572E0370710F030E047
:102E300020E02F523D4F3093D8042093D70477CF12
:102E4000F6E08F9FB00111246E55794E46E050E0B8
:102E5000CE010E945634A1CF0F931F93CF93DF93DF
:102E6000EC01FC0101900020E9F78F0101501109EC
:102E7000C017D10728F0DF91CF911F910F910895CE
:102E800089910E947E16F4CFCF93DF9300D000D0BB
:102E9000CDB7DEB78091C701811140C08091850117
:102EA00090E0019665E070E00E94DA33809385013E
:102EB00024E030E0A901481B590BCA01982F88274C
:102EC000990F805C984F0E943A0E81ED92E09093AA
:102ED000D8048093D70483E191E00E942C172091BD
:102EE00059021C823AE0822F632F0E94BA33905D10
:102EF0009B830E94BA33905D9A83822F64E60E947E
:102F0000BA33805D8983CE0101960E942C170F9001
:102F10000F900F900F90DF91CF9108958130A9F01D
:102F2000823099F62091840130E02F5F3F4F21706D
:102F300033272093840181E090E0821B930B982F2C
:102F40008827990F805C9E4FBECF80E495E0BBCF71
:102F5000CF92DF92EF92FF920F931F93CF93DF9365
:102F60006C017B0164E670E088E70E94C732EC01E7
:102F700097FD12C010E000E0F601E00FF11F849110
:102F800064E670E00E942333EC01892B29F40F5F83
:102F90001F4F0E151F0581F70E94A633CE01DF914A
:102FA000CF911F910F91FF90EF90DF90CF900895F8
:102FB00080918C0290918D02911103C091E089273C
:102FC0000895882369F062E070E082E395E10E9451
:102FD000A817892B19F080918C02089510928C0209
:102FE00080918C02EBCFCF93C0918C0280918D02A7
:102FF0008823D1F00E941C10605A75418F4F9F4F5B
:10300000609388027093890280938A0290938B0266
:10301000C11108C062E070E080E395E10E94A8174A
:10302000892B29F0C0918C028C2FCF91089581E0DB
:1030300080938C02F7CFCF9384E090E00E947934A4
:10304000C82F82E290E00E947934982F8C2FCF9184
:1030500008950F931F93CF93DF93C42FD0E0CC0F2D
:10306000DD1F2AE1629FC00DD11D11243CE9839F21
:10307000C00DD11D1124CE0187960E947934082FEE
:1030800010E0102F0027CE0188960E947934980115
:10309000282BC901DF91CF911F910F910895462FE1
:1030A000843038F4763028F46D3018F4672F0C949F
:1030B000291890E080E00895CF93DF930E944F1885
:1030C000EC0182389105A9F1D8F58133910509F415
:1030D00096C048F58932910509F48AC08A9709F4A7
:1030E00095C0C11522E5D20708F0B6C0C11531E57B
:1030F000D30708F026C1C83ED10508F09CC0C03EE9
:10310000D10560F5C83AD10508F087C0C53AD105A8
:1031100008F0EFC0C130D10509F12097F9F0C430B3
:10312000D105E0F440C08533910509F45AC0C99730
:10313000C1F680913C02837089F0C0EED0E00EC0F1
:10314000833E910599F170F4803E910501F1823E34
:10315000910539F680913C0282FD21C0CE01DF91BC
:10316000CF910895863E910561F1873E910571F1F9
:10317000843E910509F0B5CF80913D0281FFEECFED
:1031800080913C02C7EED0E084FD0DC0E7CF809176
:103190003C0280FD07C190913D0290FFDFCFC3EE5E
:1031A000D0E084FFDBCFD0E0C0E0D8CF80913C02FC
:1031B00082FDFBC090913D0290FDBFCF84FFCECF3A
:1031C000F2CF80913C0283FDDDCFC8CF80913C02DD
:1031D00083FDEEC090913D0291FFF0CFC4EED0E0B0
:1031E000BDCF80913C0285FFB9CFC9E2D0E0B6CF18
:1031F00080913C0285FFB2CFC5E3D0E0AFCF809194
:103200003C0286FFABCFCAE2D0E0A8CF80913C025F
:1032100086FFA4CFC1E3D0E0A1CFCF3BD10518F604
:10322000C85AD0E0CC0FDD1FCF5DDE4F0990D881AA
:10323000C02DD46493CFC11540E5D40708F064C015
:10324000C11580E4D80708F05CC0CE019A958115BD
:103250009F4108F483CFA7CFC11536E5D30718F5F2
:10326000C11545E5D40708F084C0C11584E5D80729
:1032700008F07AC09C2F969596959E01237033276F
:10328000C115D34508F462C0C1E0D0E002C0CC0F44
:10329000DD1F2A95E2F730E2939FC0011124C82B6D
:1032A000D92BDA685BCFC1158AE5D80778F4C11548
:1032B00099E5D90708F068C0C11528E5D20708F4D8
:1032C00072CFDC2FCC27C06FD06A48CFCE0190568A
:1032D0008115904208F067CF8D2F8F710E9459138E
:1032E00090E0982F882788279F719C012C2BE9015B
:1032F00049C0C55AD0E0C25EDE4FC881D0E0D0647C
:103300002DCFDF70D06A2ACFCE01E4E09695879565
:10331000EA95E1F783702C2F26952695237040E2DD
:10332000249F90011124382B8C2F8370C1E0D0E0B2
:1033300002C0CC0FDD1F8A95E2F7C22BD32BDC68CD
:103340000DCFDC2FCC27C16FD06A08CFC1E0D0E011
:1033500002C0CC0FDD1F2A95E2F720E2929FC00148
:103360001124C82BD92BEBCFDC2FCC27C46FD06A0C
:10337000F5CE8C2F0E945913C82FD0E0DC2FCC271C
:10338000CC27DF71D062EACE8C2F8F700E94591348
:1033900034E0D695C7953A95E1F7CF709C2FEC01B4
:1033A000D069DCCEC9E3D0E0D9CEC2EED0E0D6CE33
:1033B000C6EED0E0D3CEBF92CF92DF92EF92FF92D3
:1033C0000F931F93CF93DF938C01C090CA02D090CC
:1033D000CB02E090CC02F090CD0280913802909127
:1033E0003902A0913A02B0913B02C82AD92AEA2AAE
:1033F000FB2ACFE1D0E0BC2ED701C6010C2E04C0C1
:10340000B695A795979587950A94D2F780FD0EC03B
:10341000219788F7B12C8B2DDF91CF911F910F91C0
:10342000FF90EF90DF90CF90BF900895B8018C2F60
:103430000E945C18019761F3EECFCF93DF93EC010C
:103440000E94DB19BE01DF91CF910C945C180E94A1
:103450001D1A292F2F7092959F7092509E3078F4EC
:10346000E92FF0E0EC59F94C0C942F34803F19F01F
:1034700020F4883E20F481E00895843FE1F380E069
:103480000895883EC0F3813FD1F7F5CF822F86950E
:103490008695869508956F927F928F929F92AF92B4
:1034A000BF92CF92DF92EF92FF920F931F93CF9331
:1034B000DF9380ECC82E82E1D82E9DEDE92EF12C11
:1034C000E701CC59D10936011BC0F50185909490D4
:1034D000692DC8010E948D34682DC80101960E9493
:1034E0008D3482E0A80EB11C0E5F1F4FC017D107AC
:1034F00061F78AE1680E711C6A96CE15DF0529F026
:103500008E010A5111095301E0CF7E018CE9E80ECA
:10351000F11C8CE9C80ED11C8DE4E81683E0F80696
:1035200079F6DF91CF911F910F91FF90EF90DF908F
:10353000CF90BF90AF909F908F907F906F900895A5
:10354000CF93C0913D02C2FB992790F9981781F063
:1035500080FBC2F9C0933D0260913C0284E090E0A0
:103560000E948D346C2F82E290E0CF910C948D34C8
:10357000CF910895CF93DF93C7E9D2E060E0CE0109
:103580000E948D342196C11584E0D807B9F7DF91E8
:10359000CF910895682F86E090E00C948D3480914F
:1035A0009C0281FF11C08D7F80939C020E94CA1AE9
:1035B00080916F008E7F80936F0080919C02869532
:1035C000869586950C945D12089580919C0281FDEC
:1035D00010C0826080939C020E94CA1A109240021E
:1035E00010923F0210923E0280916F0081608093A2
:1035F0006F000895CF93DF9300D00F92CDB7DEB761
:103600009091B802943011F589837B836A839093FB
:10361000E9008FEF9091E800815095FD06C095ED8F
:103620009A95F1F700008111F5CF8091E80085FFB0
:103630000DC050E040E063E070E0CE0101960E94D2
:10364000CC0E8091E8008E778093E8000F900F9069
:103650000F90DF91CF910895BC0184E00C94FA1A89
:10366000BC0183E00C94FA1ACF93DF93EC0181E064
:103670008093E9008FEF9091E800815095FD06C09E
:1036800095ED9A95F1F700008111F5CF8091E80052
:1036900085FF14C050E040E068E070E0CE010E9479
:1036A000CC0E8091E8008E778093E80088E0FE01E0
:1036B000AEEAB2E001900D928A95E1F7DF91CF91E9
:1036C000089581E08093E00080E28093D80010921A
:1036D000C9008FE19EE40197F1F700C0000087E088
:1036E00090EBDC018093D9049093DA04A093DB047F
:1036F000B093DC0488E19CE00FB6F894A895809321
:1037000060000FBE90936000FFCFCF93C82F882337
:1037100009F488C08238C1F40E94BE1181FD82C0C4
:1037200089E30E9468100E942E102FEF81EE94E032
:10373000215080409040E1F700C0000089E30E94E2
:103740005B10CF910C942E108338A1F40E94BE110F
:1037500080FD68C083E50E9468100E942E102FEF44
:1037600081EE94E0215080409040E1F700C00000DD
:1037700083E5E5CF8438A1F40E94BE1182FD52C0DA
:1037800087E40E9468100E942E102FEF81EE94E0D3
:10379000215080409040E1F700C0000087E4CFCF87
:1037A0008CEF8C0F813A68F4EEE7F1E08191C81755
:1037B00099F121E0E438F207C9F78C2F0E946810D4
:1037C000C0CF80E28C0F883068F4C77021E030E011
:1037D00001C0220FCA95EAF780913602822B8093AE
:1037E0003602AFCFEBE5EC0FE33040F4F0E0E25E01
:1037F000FE4F808190E0CF910C940A11C85AC731D6
:1038000088F4EC2FF0E0EE0FFF1FEF5DFE4F80819C
:103810009181CF910C94F4108C2F0E945B100E9428
:103820002E10CBCFCF9108951F93CF93DF93182FF6
:10383000D0E0C0E0893311F4C0E5D0E0812F0E94D0
:10384000851B209731F4812FDF91CF911F910C942C
:10385000CA118FE99FE00197F1F700C0000021979E
:10386000F0CF8091C50280FD0AC0E9E8F1E0118245
:1038700010821282339651E0EF3BF507C1F7879A29
:1038800031B33F7721B320684FB7F89489E891E0CE
:10389000FC015191CF0168E021BB000000C057FF3F
:1038A00031BB550F000000C000C000C031BB00C0DC
:1038B0006A9591F7F1E08F3B9F0751F74FBF8FE576
:1038C00094E00197F1F700C0000008959091C502BF
:1038D00090FF0CC0E9E8F1E0818360834283339676
:1038E00091E0EF3BF907C1F70C94311C08950F9359
:1038F0001F93CF93DF9300D00F92CDB7DEB78C012B
:103900008091C50280FF10C09E012F5F3F4F409104
:10391000C8026091C702F80184810E94AC124B81F9
:1039200069818A810E94661CF80184818F5F84838B
:103930000F900F900F90DF91CF911F910F910895ED
:103940006AEE7EEF90E080E00E94AB3460E082E0BF
:1039500090E00E948D3460E083E090E00E948D341E
:10396000109238021092390210923A0210923B02E1
:1039700060E084E090E00E948D3460E082E290E0BC
:103980000E948D3460E085E090E00E948D3460E01C
:1039900086E090E00E948D346FEF87E090E00E9417
:1039A0008D3440E050E0BA0188E090E00E949F34FE
:1039B00060E08DE090E00E948D3440E050E0BA017C
:1039C00088E190E00E949F3460E087E190E00E94EF
:1039D0008D3440E050E0BA018CE190E00E949F34C9
:1039E00070E060E080E290E00E94AB3440E050E0A4
:1039F000BA0188E190E00E949F3440E050E0BA01B3
:103A00008FE090E00E949F3440E050E0BA0183E1F3
:103A100090E00C949F3490E080E00E9487348A3ECE
:103A20009E4F51F00E94A01C80919C02847089617D
:103A300080939C020E94CA1A86E090E00E9479342A
:103A400080939C02803220F08770886180939C0272
:103A500090919C02892F817090FF04C0892F8695D8
:103A6000869586950C945D12CF92DF92EF92FF922D
:103A70006B017C010E949D12B701A60188E090E0D5
:103A8000FF90EF90DF90CF900C949F34EF92FF92D5
:103A90000F931F93CF93DF9300D00F92CDB7DEB774
:103AA000182FF62E042FE22E8091C50280FF28C029
:103AB000E82FE695F0E0E75EFE4F908190939D023F
:103AC0008E7F823039F59E012F5F3F4F812F0E94FC
:103AD000AC124B8169818A810E94661C1093C602D8
:103AE000F092C7020093C802EE2051F06091C50227
:103AF0007091C6028091C7029091C8020E94341D45
:103B00000F900F900F90DF91CF911F910F91FF9029
:103B1000EF900895923011F71091C602DFCFE5ECD7
:103B2000F2E0438128E0421B08F440E021E062819A
:103B300081810C94461DE5ECF2E0438128E0420FC0
:103B400008F44FEF21E0628181810C94461DE5EC81
:103B5000F2E0628128E0621B08F460E021E043812A
:103B600081810C94461DE5ECF2E0628128E0620F51
:103B700008F46FEF21E0438181810C94461DE5EC50
:103B8000F2E0818121E04381628188500C94461DDE
:103B9000E5ECF2E0818121E043816281885F0C9451
:103BA000461D8091C902882319F081508093C90273
:103BB0006091C5027091C6028091C7029091C802BF
:103BC0000C94341D8091C902833018F48F5F809368
:103BD000C9026091C5027091C6028091C70290919E
:103BE000C8020C94341DE5ECF2E083E0808311827E
:103BF0008FEF8283838314826081718182819381BC
:103C00000C94341D1F920F920FB60F9211242F9314
:103C10003F934F935F936F937F938F939F93AF9354
:103C2000BF93CF93DF93EF93FF93D091E900DF70C1
:103C30008091EC00C82FC17080FDC0E81092E900AF
:103C40008091F000877F8093F00078940E94B713F2
:103C50001092E9008091F00088608093F000CD2BF5
:103C6000CF70C093E900FF91EF91DF91CF91BF91A9
:103C7000AF919F918F917F916F915F914F913F9104
:103C80002F910F900FBE0F901F9018951F920F92BB
:103C90000FB60F9211242F933F934F935F936F931F
:103CA0007F938F939F93AF93BF93EF93FF938091F5
:103CB000E10082FF09C08091E20082FF05C080918F
:103CC000E1008B7F8093E1008091DA0080FF24C0C7
:103CD0008091D80080FF20C08091DA008E7F809391
:103CE000DA008091D90080FF9BC080E189BD82E12C
:103CF00089BD09B400FEFDCF81E08093B8028091B8
:103D0000AB02811109C00E947C0E0E94470F809176
:103D1000E20084608093E2008091E10080FF17C0A0
:103D20008091E20080FF13C08091E2008E7F80933B
:103D3000E2008091E20080618093E2008091D800EF
:103D400080628093D80019BC85E08093B80280918E
:103D5000E10084FF29C08091E20084FF25C080E15A
:103D600089BD82E189BD89B5982F917080FFFBCF15
:103D70008091D8008F7D8093D8008091E1008F7E64
:103D80008093E1008091E2008F7E8093E200809139
:103D9000E20081608093E2008091B902882309F4F7
:103DA00045C084E08093B8028091E10083FF27C082
:103DB0008091E20083FF23C08091E100877F8093A0
:103DC000E10082E08093B8021092B9028091E10094
:103DD0008E7F8093E1008091E2008E7F8093E200ED
:103DE0008091E20080618093E20042E060E080E048
:103DF0000E94150F8091F00088608093F000FF9181
:103E0000EF91BF91AF919F918F917F916F915F9152
:103E10004F913F912F910F900FBE0F901F901895CB
:103E200019BC1092B8021092AB0276CF8091E300D9
:103E300087FD93E09093B802B7CF78941F921FB696
:103E40001F9211248F939F93AF93BF9380915A0237
:103E500090915B02A0915C02B0915D020196A11D60
:103E6000B11D80935A0290935B02A0935C02B093C1
:103E70005D02BF91AF919F918F911F901FBE1F90C8
:103E800018952FB7F89480915A0290915B02A091F7
:103E90005C02B0915D022FBF08950F931F93CF93E3
:103EA000DF93C62FD42F022FFC0182818823A1F03B
:103EB0006093C4020E94411F9093C3028093C20288
:103EC000C77081E001C0880FCA95EAF7DF91CF91F2
:103ED0001F910F910C94EA108091C402681335C0B1
:103EE0008091C2029091C3020E940D10883C9105FE
:103EF00060F510E21D0FCD17B9F080E28C0F88300D
:103F000040F4C77081E001C0880FCA95EAF70E94AB
:103F1000DF10183048F481E09D2F977001C0880FA2
:103F20009A95EAF70E94EA10802F0E94141C18301C
:103F300098F4D77081E001C0880FDA95EAF7DF9135
:103F4000CF911F910F910C94DF10C77081E001C0D9
:103F5000880FCA95EAF7F3CFDF91CF911F910F91A8
:103F600008956091C502669570E041E050E080E000
:103F700091E00E945F34892B19F481E080939E02C6
:103F80000E94411F90935402809353020895909190
:103F9000C50290FF36C09170811129C09260909344
:103FA000C502662351F06091C5027091C6028091EE
:103FB000C7029091C8020E94341D6091C5026695A7
:103FC00070E041E050E080E091E00E945F34892B96
:103FD000A9F010929E0281E08093560220E0409169
:103FE000C8026091C7028091C6020C94461D8530BC
:103FF00010F09860D4CF880F982BD1CF0E94B11FBA
:10400000EACF08958091C5028695815009F484E035
:1040100061E00C94C71F8091C50286958F5F853043
:1040200008F081E061E00C94C71F8091C50280FF19
:1040300007C0869582588F77823010F40C940B203D
:1040400061E082E00C94C71F3F924F925F926F92A3
:104050007F928F929F92AF92BF92CF92DF92EF9218
:10406000FF920F931F93CF93DF9300D000D00F9256
:10407000CDB7DEB78C01FC0183819481892B31F0AF
:104080008081918189238F3F09F068C60F900F903E
:104090000F900F900F90DF91CF911F910F91FF9094
:1040A000EF90DF90CF90BF90AF909F908F907F90D8
:1040B0006F905F904F903F9008950E94DB19F82E0B
:1040C000682F89819A810E94A91069817A818F2D38
:1040D0000E944F187C01F8018281882309F45DC099
:1040E000C70190568115F0E29F0750F0905E811550
:1040F00020E1920728F0915C81159F4108F087C06C
:10410000C70199279C01245031092432310520F040
:104110008B970E9708F041C08091C3019091C40124
:104120000097A9F10E940D10D09059029C0150E017
:1041300040E060E67AEE80E090E00E941034CA0130
:10414000B90125E030E040E050E00E941034CA019F
:10415000B9016D197109810991090E945F3527EA3A
:1041600039E747E45DE30E94EB354B015C016D2DBF
:1041700070E090E080E00E945F359B01AC01C501DA
:10418000B4010E94C2340E942E35609359020E94ED
:10419000411F9093C4018093C301F8018281882359
:1041A00009F4CFC5C70182519F45409708F098C5D3
:1041B0008FEF93E00E947934FEEEEF0E57E9852EE3
:1041C00052E0952E8823D1F180913302877009F453
:1041D0005DCFF8018281882309F458CF82E00F90E7
:1041E0000F900F900F900F90DF91CF911F910F9133
:1041F000FF90EF90DF90CF90BF90AF909F908F9007
:104200007F906F905F904F903F900C9477118FEF5D
:10421000E816F10421F018F090E080E073CFC701B8
:1042200071CF811424E0920679F2C4010E9479349E
:10423000811101C0EA943FEF831A930AE110F1CF94
:104240001C821B82442443944AE0342E74018FEF75
:10425000E81AF80AC4010E94793489831A828823F3
:1042600009F4B2CF9FEF980F933000F58A8349820B
:1042700092E0890E911CC7010E9479348B838823B8
:1042800009F4A2CFFE0131967F01F701208122239C
:10429000E9F2213009F049C091818281913041F4E5
:1042A000F2E0EF0EF11C0E94141C09C04701EACF96
:1042B000923049F422E0E20EF11C0E94851B3FEF90
:1042C000E31AF30AE2CF933031F432E0E30EF11C4B
:1042D0000E94CA11F4CF943021F08FEFE81AF80A47
:1042E000EECF92E0E90EF11C30E020E0B7016F5F05
:1042F0007F4FF70141818053990B8A30910550F02F
:1043000021503109E0F28FE99FE00197F1F700C0F9
:104310000000F6CF329EF001339EF00D11249C0177
:104320002E0F3F1F842F7B01E1CFE22FF0E0EC59ED
:10433000FA4E5490822F86958695869590E0FC01E2
:10434000EC5AFA4E64902770712C022E02C07594BC
:1043500067940A94E2F7E1E06E227724FC01EC5BBB
:10436000FA4EA490B12C022E02C0B594A7940A94E0
:10437000E2F7F1E0AF22BB24FC01EC5CFA4EC49002
:10438000D12C02C0D594C7942A95E2F721E0C2222D
:10439000DD246114710419F081EE0E94851BA114C3
:1043A000B10419F086EE0E94851B852D0E94141C15
:1043B000AB2819F086EE0E94CA11672819F081EE29
:1043C0000E94CA11CD2809F47ACF8CE26CCF81E02B
:1043D0000E94931103C081E00E9454110E94381181
:1043E000F3CE82E0F5CF813009F095C482E091C42C
:1043F00083E00E94821280919C020E94CA1AE4CE3D
:1044000080E0F7CF80919C02982F987F79F08850B8
:1044100080939C02887F91E009F490E080919C0257
:1044200090FB80F980939C020E94CA1A80919C02A2
:104430008695869586950E945D12C6CE80919C02D7
:10444000982F969596959695933040F49F5F990F87
:10445000990F990F8770892B80939C0280919C0201
:104460008160E0CF80919C0280FF07C08E7F8093A7
:104470009C020E94CA1A80E0DECF80FDA5CE81603A
:1044800080939C02813019F489E080939C02809192
:104490009C02CACF90919C02892F8695869586951D
:1044A0008F5F8F719770843048F4880F880F880F62
:1044B000892B80939C0280919C02ACCF90939C02AC
:1044C000FACF80919C0281FF03C00E94CF1A7CCE5C
:1044D0000E94E51A79CE27E245EE65EE26C526E272
:1044E00041EE60EE22C527E245EE64EE1EC526E2EF
:1044F00041EE62EE1AC528E241E0EFCF80913C0226
:10450000806196E0E9169CE5F90609F4A2C0809165
:104510003C028860E7E0EE16ECE5FE0608F499C080
:1045200080913C02806295C080913C028D7FFCE0CE
:10453000EF16FCE5FF0609F48CC078F480913C028C
:104540008C603AE0E3163CE5F30609F482C008F417
:1045500093C080913C028E7F7CC080913C02877F1B
:104560009EE0E9169CE5F90609F473C080913C02CF
:104570008B7FEFE0EE16ECE5FE0608F46AC0809152
:104580003C028F7E66C0FBEFEF16FCE5FF0609F4E8
:104590006BC068F533E1E3163CE5F30609F47AC035
:1045A00090F491E1E9169CE5F90609F46FC0E2E1A7
:1045B000EE16ECE5FE0609F007C50E94AC138091EB
:1045C0003C028F7746C0F5E1EF16FCE5FF0609F4E3
:1045D00069C008F47DC080913D0281603AEFE31626
:1045E0003CE5F30609F0F0C480933D02EDC48FEF83
:1045F000E8168CE5F80609F451C0A0F480913D025C
:104600008D7FEDEFEE16ECE5FE0671F380913D0235
:104610008E7FFEEFEF16FCE5FF0630F380913D0242
:104620008360E2CF21E0E2162DE5F20609F459C0DD
:1046300008F444C060E082E0E8168DE5F80609F071
:10464000C3C48EE090E00E948D34BEC480913C02D1
:10465000816080933C02B8C480913C028260F9CFB3
:1046600080913C028460F5CF80913D028260BCCF96
:1046700080913C028064EDCF0E94AC1380913C029B
:104680008068E7CF80913C028F7DE3CF80913C0230
:104690008F7BDFCF80913C02837FDBCF80913D0217
:1046A0008C7FA2CF80913C0282FB992790F921E078
:1046B000922790FB82F990FB83F9CBCF80913D024A
:1046C000982F909591708E7F892B90FB81F98CCFDC
:1046D0000E94AC1390913C02892F97FB87F9805878
:1046E000B8CF61E0AECF8091360296E1E9169CE545
:1046F000F90609F044C38A7A91E009F490E09093B6
:10470000C801811106C089E20E9468100E942E1023
:104710005BCD85E3F9CF85E38BC48091C50280FF33
:104720001BC08E7F8093C5026091C5027091C60246
:104730008091C7029091C8020E94341D10929E027F
:10474000EFEFF0E722E0E150F0402040E1F700C059
:1047500000000E94311C38CD81608093C50261E069
:1047600086950E94C71F30CD42E050E26BE070E2B8
:104770000E94981229CD4BE050E262E070E2F8CF3F
:104780004FEB5DE168EC7DE1F3CF48EC5DE16FEB71
:104790007DE1EECF47EA5DE163EB7DE1E9CF43EBFD
:1047A0005DE167EA7DE1E4CF4BE95DE16FE87DE142
:1047B000DFCF42EE5DE161ED7DE1DACFFBE5EF16A3
:1047C000FDE5FF0611F12CE5E2162DE5F20609F0F4
:1047D00008C380913D0282FB882780F991E08927F8
:1047E0000E94A01AFEC20E94AC133FEF84E39CE03B
:1047F000315080409040E1F700C000000E94611BF2
:104800000E94A01CE1CC81E0EBCF80E0E9CFC701A2
:104810000E948110D82EF4C22F2D2F70A22E8F2D22
:10482000807F19F0A29490EFA922DD20C9F0AA2080
:1048300069F080E28E0D883010F081100BC08091FD
:104840003602A82AA09236020E942E108E2D0E94B7
:10485000851B19C080913502A82AA0923502F4CF99
:104860008E2D0E94CA11AA2071F0A09480E28E0DB4
:10487000883010F081103FC080913602A822A092AB
:1048800036020E942E10232D2850330B2430310580
:1048900020F40E94BE110E949C13CC2009F4F6CB98
:1048A0008091330280FDF2CBF801128285958595C7
:1048B00085950E949311C8010E94242080913302A3
:1048C0008595859585950F900F900F900F900F907F
:1048D000DF91CF911F910F91FF90EF90DF90CF90DC
:1048E000BF90AF909F908F907F906F905F904F9010
:1048F0003F900C94541180913502A822A092350269
:10490000C0CF3F2D3F70932E8F2D807F803219F0C6
:10491000929480EF9822882071F081E0881681F1CE
:10492000DD20D9F1AA2091F1F801858180FF8ECF99
:104930008F7085832BC0DD20B1F090913702892DD7
:10494000892BA11003C00E94EA109DCFE1E0AE12B6
:10495000FACF20913D0222FD96CF981709F493CF0C
:104960008093370290CFA11006C00E942810892D95
:104970000E94DF1088CFF1E0AF1609F484CFF5CFA5
:10498000DD2031F025E02A1508F47DCF892DDBCF1D
:1049900034E03A1508F477CFEACFAA2041F3F9E3DF
:1049A0008F1209C02FEF37EE83E021503040804056
:1049B000E1F700C000008E2D0E94CA1164CF8F2D38
:1049C00086958695837061F0813009F05CCFC701D0
:1049D0009370D11002C090E080E00E94F41053CF99
:1049E000C7019370D11002C090E080E00E940A11CC
:1049F0004ACF8F2D837009F066C0D11044CF8E2D21
:104A0000829586958770880F880F6E2D6F70462E61
:104A1000512C712C612C082E04C0440C551C661CB2
:104A2000771C0A94D2F740E050E0BA01E4FE0FC0D0
:104A30004FE050E060E070E004C0440F551F661F77
:104A4000771F8A95D2F740955095609570958F2D78
:104A5000869586958370823019F1D8F4809038025B
:104A600090903902A0903A02B0903B02813069F0F8
:104A70004429552966297729CB01BA016821792172
:104A80008A219B210E94B411FECE482859286A2809
:104A90007B28CB01BA016429752986299729F2CF91
:104AA00044295529662977294090380250903902C7
:104AB00060903A0270903B02CB01BA0164257525E3
:104AC00086259725DFCF8695DD2011F08F2D81700B
:104AD000882309F4D8CE8E2D829586958770880F0D
:104AE000880F6E2D6F70462E512C712C612C082E64
:104AF00004C0440C551C661C771C0A94D2F740E095
:104B000050E0BA01E4FE0FC04FE050E060E070E01A
:104B100004C0440F551F661F771F8A95D2F7409532
:104B20005095609570958F2D86958695837082300F
:104B300019F1D8F48090CA029090CB02A090CC02D8
:104B4000B090CD02813069F0442955296629772932
:104B5000CB01BA01682179218A219B210E942E1163
:104B600092CE482859286A287B28CB01BA016429AB
:104B7000752986299729F2CF44295529662977294D
:104B80004090CA025090CB026090CC027090CD024F
:104B9000CB01BA016425752586259725DFCF9F2D8A
:104BA0009F70F92EDD2029F0892F0E9493118E2D00
:104BB000CACE8E2D0E94DF108F2D0E94541163CE1D
:104BC0008E2DE2EF8E1609F457C0E81578F0F0EF5D
:104BD0008F1649F121EF821609F446C0DD2009F451
:104BE0006FC0A11033CE8F2D8F7143C033EF83166A
:104BF00009F447C094EF8912F1CFDD2009F455C0C4
:104C00002F2D2F71F22E822F0E94931180913D0241
:104C100082FD07C038E0F39EC001112483608093B9
:104C200033028F2D26C0DD20D1F0E4E0EA1508F430
:104C30002ACE2F2D2F7161E070E080E090E004C05B
:104C4000660F771F881F991F2A95D2F74090CA02D6
:104C50005090CB026090CC027090CD029BCFF5E0DB
:104C6000FA1508F410CEE5CF8F2D8F71DD2009F4F1
:104C7000A4CF0E94931107CE8F2D8F71DD20C9F331
:104C80009CCF60E070E0CB01DD2009F467CF2F2DD1
:104C90002F7161E070E080E090E004C0660F771F44
:104CA000881F991F2A95D2F759CF81E00E9477116A
:104CB00081E08A1508F0E7CD82E00E947711E3CD0C
:104CC000AA2059F0893309F076CE9FEFE7EEF3E0A2
:104CD0009150E040F040E1F76CCE8F2D8F716DCF99
:104CE000F0E1EF16FFE5FF0609F471CB21E1E216D2
:104CF0002FE5F20609F475CBC701049784329105BC
:104D000018F087970E9768F48091C70181116BCBDB
:104D100081E08093C7010E94411F9093C601809358
:104D2000C501F8018281882309F45EC1F701EB5BBC
:104D3000FC45E730F10508F0DDC0EE58F94C0C9465
:104D40002F3430E1E3163FE5F30609F444CB81E16B
:104D5000E8168FE5F80681F682E03ECB85E0DE01BD
:104D6000119601900D928A95E1F7F80122818981CF
:104D70009A812111A2C90E948110F82EA6C98272BF
:104D80002AECE2162CE5F20609F40ECD08F084C0F8
:104D900095ECE9169CE5F90609F4F2CC08F063C03D
:104DA000F3ECEF16FCE5FF0609F4DECC08F0E3CCEB
:104DB00032ECE3163CE5F30609F4AFCC3AE5E31632
:104DC0003DE5F30609F41FCD08F0F8CCE1149CE5AD
:104DD000F90609F408CDEEEDEE16ECE5FE0609F451
:104DE0000FCDF8018281E080F180882309F40FCD96
:104DF000C7010E94DB19D82E682FC7010E94A91095
:104E0000B7018D2D0E945C187C01882EF801D2809C
:104E1000A580A2943FE0A322809133028770A1F085
:104E2000CD2CDD2091F08F2D807F803421F080E229
:104E30008E0D883048F082E00E9477118091330215
:104E40008770CC24C3948111C12C3F2C32942FE065
:104E50003222FBE0F31508F416CDE32DF0E0E7581D
:104E6000F94C0C942F3497ECE9169CE5F90609F4FB
:104E700091CC08F48ACCF8ECEF16FCE5FF0609F4B7
:104E80008ECC4FE85DE16BE97DE129ECE2162CE583
:104E9000F20609F46DCC92CF3EECE3163CE5F30646
:104EA00009F492C998F4ECECEE16ECE5FE0609F470
:104EB00080CC41ED5DE162EE7DE1FDECEF16FCE5BD
:104EC000FF0608F455CC61E081E04BCC26EDE216FC
:104ED0002CE5F20648F430EDE3163CE5F30608F065
:104EE00073C90E94152070C98DE5E816F80609F40B
:104EF0006BC964CF93EFE9169CE5F90609F4EFCA94
:104F0000C0F4F8EDEF16FCE5FF0609F4E4CA29ED5C
:104F1000E2162CE5F20609F4EECA37EDE3163CE59D
:104F2000F306A9F426E241EE61EEC8010E944D1F8E
:104F30004BC985EFE8168CE5F80609F4D8CA08F4E1
:104F4000D2CAE6EFEE16ECE5FE0609F481C0109237
:104F5000C402F2E0EF16FCE5FF0608F4C4CB26E13C
:104F6000E2162CE5F20630F0C7018A5F9C450997EE
:104F700008F0B9CB0E941B1890933D0280933C022D
:104F800030E1E3163CE5F30609F47CCB08F0FBCAFC
:104F900098E0E9169CE5F90609F46ACB08F0C4CA62
:104FA000F4E0EF16FCE5FF0609F45ACB08F0A6CAB8
:104FB00032E0E3163CE5F30609F448CB83E0E8165B
:104FC0008CE5F80609F448CB60913C02F0903D0274
:104FD00084E090E00E948D346F2D82E290E00E9488
:104FE0008D340E94AC13F0C8F3EFEF16FCE5FF061A
:104FF00009F475CA00F538EDE3163CE5F30609F44B
:105000006ACA89EDE8168CE5F80609F474CA97EDCA
:10501000E9169CE5F90609F485CFF6E1EF16FCE503
:10502000FF0609F0DECE8091C801811174CB89E2C0
:105030000E945B106BCBE5EFEE16ECE5FE0609F483
:1050400056CA08F450CA26EFE2162CE5F20629F7F4
:1050500027E245EE66EE69CF1F93CF93DF938091F1
:10506000CE01807FA9F48091CB01882389F08091C3
:105070000002D091CF016091C9017091CA01A09145
:10508000CC01B091CD01C62FC72316E0D81304C0C0
:10509000DF91CF911F91089590E0109711F0CF3FCD
:1050A00019F401968770F2CF189F9001199F300D67
:1050B0001124F901E053FE4F41814713F2CF4081A3
:1050C0004613EFCF42814111ECCF438154814A1BFB
:1050D0005B0B483C510528F78091CE018F708061B1
:1050E0008093CE01F901EB52FE4F80818F70806179
:1050F000808389EC91E00E942420DF91CF911F9161
:105100000C94D510AF92BF92CF92DF92EF92FF92A4
:105110000F931F93CF93DF93CDB7DEB761970FB691
:10512000F894DEBF0FBECDBF8C0185E0F801DE0133
:105130001D9601900D928A95E1F7F8018081918189
:10514000E28029ECA22E21E0B22E6091CC01709178
:10515000CD016115710509F43EC13091C90140913D
:10516000CA01232F24232F3F09F435C1C380D480E3
:10517000F090CB01F601E61BF70BFF2009F4FBC012
:105180002091CE01522F507FE83CF10508F0BBC0C2
:10519000511178C0FE2C491321C038131FC0E110F3
:1051A0001DC02F7020612093CE01C5010E942420D4
:1051B0008091CE01F80185838F2D61960FB6F8940A
:1051C000DEBF0FBECDBFDF91CF911F910F91FF903A
:1051D000EF90DF90CF90BF90AF900895CD2829F049
:1051E000282F29232F3F09F014C120E0F22FF1705E
:1051F000DF2E20FF3DC0209100024091CF0156E0FC
:10520000241315C08D879E878D859E850E941D1A4B
:10521000292F22952F702230F8F0243020F59F702E
:10522000F9F0F8019581907FD9F4D12C1FC030E0BE
:10523000529FF001539FF00D1124E053FE4F618106
:10524000961306C06081861303C06281E61210C007
:105250002F5F3F4F2770D4CF9F7011F0882329F321
:10526000805E883010F3C8010E942420FD2CA4CF5A
:10527000EE2009F4A1CF8091CE0181608093CE0110
:10528000F12C9ACF491312C0381310C0E1100EC090
:10529000F8012583C8010E94242086E0F801A9ECCA
:1052A000B1E001900D928A95E1F786CF8D879E87B8
:1052B0008D859E850E94271A882309F1EE20F9F03A
:1052C0008091CE01803270F02091C9013091CA01E5
:1052D00038872F831986DB86CA868C87CE0107968E
:1052E0000E94242086E0F801A9ECB1E001900D9223
:1052F0008A95E1F70E942C28FF24F3945DCFC80122
:105300000E942420F9CF51110AC089EC91E00E943B
:10531000242086E0F50111928A95E9F7B1CF49136F
:105320000FC038130DC0E1100BC0F8012583C80170
:105330000E94242086E0F50111928A95E9F73CCF7E
:105340008D879E878D859E850E94271A8823B9F2B6
:10535000EE20A9F28091CE01803220F22091C90185
:105360003091CA013A8329831B82DD82CC828E83ED
:10537000CE010196B5CFE83CF105E0F6FE2CEE201B
:1053800009F4BDCF491316C0381314C08091CE0163
:1053900080FD83CF982F907F09F47FCFF80185831C
:1053A000903F09F477CF982F907F905F8F70892B73
:1053B000858370CF8D879E878D859E850E94271A55
:1053C000811190CF8091CE0181608093CE01C80180
:1053D0000E942420F1CEEE2009F491CF8D879E8784
:1053E0008D859E850E94271AF82E882309F487CF81
:1053F00086E0F801A9ECB1E001900D928A95E1F701
:105400008091C9019091CA010E941D1A0E942C2806
:10541000D3CE21E02E25EACE1F93CF93DF93CDB7D5
:10542000DEB767970FB6F894DEBF0FBECDBF342F3F
:105430004B8B252F5C8B6D8B7E8B8F8B8E899F8901
:105440006111109235021A8A198A3D872E876F875B
:10545000998B888B86E0FE013D96DE0117960190C0
:105460000D928A95E1F7CE0107960E948228882343
:1054700089F016E0809100029091CF01891349C014
:1054800067960FB6F894DEBF0FBECDBFDF91CF9108
:105490001F91089586E0FE013796DE011196019076
:1054A0000D928A95E1F78A859B85892B11F38F816F
:1054B000988589238F3FE9F22091CF0130E0C9011F
:1054C000019687709927409100024817190671F4D8
:1054D0000E94AC131092CF011092000286E0E9EC1A
:1054E000F1E0DF011D928A95E9F7C3CF96E0929F24
:1054F000D001939FB00D1124A053BE4FFE013196F1
:1055000001900D929A95E1F78093CF010E94D510FA
:10551000B0CF819FC001112480539E4F0E948228EA
:10552000882309F4ADCF8091000290E00196877046
:105530009927809300029ECF8F929F92AF92BF9245
:10554000DF92EF92FF920F931F93CF93DF93CFE4FD
:10555000D1E001E412E0D12CEE24E394F12C899106
:10556000F894E82FE295EF70F0E021A18F70A70189
:1055700002C0440F551F8A95E2F7CA01922F982B5B
:1055800091A392A18095892382A3789400C0E5E538
:10559000F1E030E020E0B12CA12C4191A42FA295A4
:1055A000AF70B0E090968C9190E04F7002C09595EE
:1055B00087954A95E2F780FD6FC0C701022E02C0B1
:1055C000880F991F0A94E2F7A82AB92A2F5F3F4F44
:1055D0002D30310511F7FE01319780810E94421371
:1055E00050EA5A95F1F7F80180819181A816B90621
:1055F00009F455C0B182A08281E0D82A0E5F1F4F06
:10560000F1E0C535DF0709F0AACFDD2009F449C074
:1056100081E0809388010E94411F909387018093CD
:10562000860180918601909187010E940D10069756
:10563000E0F180914102909142029093A002809308
:105640009F0280914302909144029093A202809322
:10565000A10280914502909146029093A40280930A
:10566000A30280914702909148029093A6028093F2
:10567000A5028091490290914A029093A8028093DA
:10568000A70280914B0290914C029093AA028093C2
:10569000A9021092880109C090E080E095CF80E0D7
:1056A000ACCF809188018111BCCF8091C3019091D2
:1056B000C4010E940D10893E934060F1609159022F
:1056C000C62FD0E0662777276C1B7D0B072E000CBA
:1056D000880B990B0E945F3527EA39E747E45DE3C1
:1056E0000E94EB354B015C01BE01DD0F880B990B6D
:1056F0000E945F359B01AC01C501B4010E94C23418
:105700000E942E35609359020E94411F9093C4015C
:105710008093C3018091C5019091C6010E940D1034
:10572000893C910510F01092C7018D2DDF91CF912A
:105730001F910F91FF90EF90DF90BF90AF909F90DF
:105740008F900895CDB7DEB7AC970FB6F894DEBF53
:105750000FBECDBF84B7877F84BF0FB6F894A895DE
:1057600080916000886180936000109260000FBE9D
:1057700080E890E00FB6F894809361009093610008
:105780000FBE85B7806885BF85B7806885BF87E015
:1057900090E190937B0180937A010E947C0E0E949D
:1057A000470F8091E20084608093E20078948091BA
:1057B000B8028823A1F01091E9001F709091EC00CD
:1057C000892F817090FD80E8182B1092E90080915C
:1057D000E80083FD0E94B7131F701093E90082E078
:1057E00084BD93E095BD9AEF97BD80936E0084EFE2
:1057F0000E94421381EF0E94421386EC0E944213E2
:1058000082EC0E94421387E60E94421384E90E94C0
:10581000421305E511E062E6E62E61E0F62ED801BE
:105820008D918D010E944213E016F106C1F7E1E46B
:10583000F2E08DE492E0AFE9B2E0119211921D9294
:105840001D928E179F07C9F790E080E00E94873471
:105850008A3E9E4F11F00E94A01C82E090E00E94C0
:10586000793480938F020E941B1890933D0280939D
:105870003C020E949C2AEFE3FCE93197F1F700C05B
:1058800000000E949C2A80919F0280FF17C06FEF4A
:1058900083E290E00E948D346FEF84E290E00E94FA
:1058A0008D346FEF85E290E00E948D346FEF7FEFD3
:1058B00090E080E00E94AB340E94611B83E090E0A6
:1058C0000E947934682F70E090E080E00E94B4116B
:1058D0003E9A4698269A2E98259A2D98279A2F9880
:1058E0008AE08093800089E1809381008FEF9FEFB1
:1058F00090938700809386000E940B1D80919C02EC
:1059000081FF0BC01092400210923F0210923E02A3
:1059100080916F00816080936F0083E290E00E942D
:105920007934813209F07FC584E290E00E947934B5
:10593000863009F078C585E290E00E9479348032A3
:1059400009F071C51092860280E88093CE020E9411
:10595000C1326DE070E087EF95E10E94A817892BB6
:10596000E9F58091860263E070E081FDB0C184EFCB
:1059700095E10E94A817892B89F56DE070E084EE0F
:1059800095E10E94A817892B49F50E941C10605AC6
:1059900075418F4F9F4F6093880270938902809367
:1059A0008A0290938B02E1EDF2E080E092E0DF0169
:1059B0009C011D9221503040E1F7F093D804E09310
:1059C000D7048FEF9FEF9093D0028093CF0281E0B6
:1059D00080938D0280938C02109287020E940B1D8F
:1059E00080914D02811136C090E080E00E948734A2
:1059F0008A3E9E4F21F00E94A01C0E94F31D88E069
:105A000090E00E9481346093C5027093C602809337
:105A1000C7029093C8026E7F71F40E94F31D88E064
:105A200090E00E9481346093C5027093C602809317
:105A3000C7029093C8020E949D1210929E0280910C
:105A4000C50280FF04C060E086950E94C71F81E008
:105A500080934D0288E091E090934F0280934E0234
:105A600058E1852E912C8091B80200E112E1853039
:105A700009F48BC10E949C2AD82E81110E941C100F
:105A8000E0E9F2E0AFE9B2E010E000E0702F8D91C4
:105A90009D91219131912817390709F49BC128273D
:105AA000392760E0EE24E394F12CA9014E215F2117
:105AB000452B09F489C169A37AA39C012E213F21BA
:105AC00091E0232B09F490E09BA30E94411F816089
:105AD000782F9DA38CA349A15AA16BA18DA10E94EF
