:100000000C9451090C9498090C9498090C94980933
:100010000C9498090C9498090C9498090C949809DC
:100020000C9498090C9498090C941F180C94DB17E5
:100030000C943B2C0C9498090C9498090C949809F6
:100040000C9498090C9498090C9498090C949809AC
:100050000C94622C0C94F6180C9498090C94980942
:100060000C9498090C9498090C9498090C9498098C
:100070000C9498090C9498090C9498090C9498097C
:100080000C9498090C9498090C9498090C9498096C
:100090000C9498090C9498090C9498090C9498095C
:1000A0000C9498090C9498090C94980905010980FE
:1000B000A101850319012AB700150126B700950192
:1000C00075108100C0050C0901A101850419012AE0
:1000D000A002150126A002950175108100C00660DE
:1000E000FF0961A1010962150026FF00952075082E
:1000F00081020963150026FF00952075089102C052
:1001000005010906A101050719E029E715002501E8
:10011000950875018102950175088101050719008F
:1001200029FF150026FF00950675088100050819AE
:10013000012905950575019102950175039101C08D
:10014000000101010101010101010202020202029A
:10015000020202030303030303030304040404046D
:100160000404050505050506060606060707070734
:100170000708080808090909090A0A0A0B0B0B0CE9
:100180000C0C0D0D0D0E0E0E0F0F0F101011111186
:100190001212131314141515161617171818191907
:1001A0001A1A1B1B1C1D1D1E1E1F2020212222236C
:1001B0002424252626272829292A2B2C2D2D2E2FAD
:1001C00030313232333435363738393A3B3C3D3EC4
:1001D0003F404142434445464748494A4C4D4E4FB3
:1001E00050515354555658595A5B5D5E5F61626475
:1001F000656668696B6C6D6F7072737577787A7B02
:100200007D7E8082838587888A8C8E8F9193959658
:10021000989A9C9EA0A2A3A5A7A9ABADAFB1B3B578
:10022000B7BABCBEC0C2C4C6C9CBCDCFD1D4D6D854
:10023000DBDDDFE2E4E7E9EBEEF0F3F5F8FAFDFFF2
:1002400000000000000000000000000101020304A3
:100250000506080A0C0F1114181C2024292E333906
:100260003F464C535B626A7179818A929AA2AAB224
:10027000B9C1C8CFD5DCE1E7EBF0F4F7FAFCFDFE3D
:10028000FFFEFDFCFAF7F4F0EBE7E1DCD5CFC8C1E7
:10029000B9B2AAA29A928A8179716A625B534C467A
:1002A0003F39332E2924201C1814110F0C0A08067C
:1002B000050403020101000000000000000000002E
:1002C000AA00A8002900A9000000230024001C00A7
:1002D0000000000000000000000035001E001F00AC
:1002E0002000210022002500260027002D002E00DE
:1002F0002A004C002B0014001A00080015001700FB
:1003000018000C00120013002F00300031003900DB
:1003100004001600070009000A000B000D000E0083
:100320000F00330034002800E1001D001B00060010
:1003300019000500050011001000360037003800D4
:10034000E700E0000000E2002C0000000151000086
:100350002C00000076000000E500E4000100010030
:100360000100005C00003F004000BF5C0000000096
:1003700000000000000001003A003B003C003D008E
:100380003E004100420043004400450001004C0093
:10039000C25CC35CC45C010001000100C05CC15CC4
:1003A0005200010001000100005C0100C65CC55C58
:1003B00001000100010001000100500051004F0048
:1003C000010001000100CA5CC95C010001000100DC
:1003D0000100010001000100010001000100010015
:1003E0000000010001000000010000000100000009
:1003F00001000000010001000100010001000100F6
:1004000000000100010001000000000000000000E9
:1004100000000100010001000100010001000100D5
:1004200001000100010001000100010001000100C4
:1004300001000100010001000100010001000100B4
:1004400001000100010001000100010001000100A4
:100450000100010001000100010001000100010094
:100460000100010001000100010001000100010084
:100470000100010001000100010001000000010075
:100480000100000001000000010000000100000068
:100490000100010001000100010001000000010055
:1004A0000100010000000000000000000000010049
:1004B0000100010001000100010001000100010034
:1004C0000100010001000100010001000100010024
:1004D0000100010001000100010001000100010014
:1004E0000100010001000100010001000100010004
:1004F00001000100010001000100010001000100F4
:1005000001000100010001000100010001000100E3
:1005100001000100010001000000010001000000D5
:1005200001000000010000000100000001000100C6
:1005300000AF00000000000000000000000000000C
:1005400000000000000000000000000000000000AB
:100550000000000000007E0F00D4FFFFFFC7000076
:10056000007800000000000000002A2B2800000096
:100570000000000000000000000000000029000052
:1005800000002C1E3420212224342627252E362D2F
:100590003738271E1F202122232425263333362EC9
:1005A00037381F0405060708090A0B0C0D0E0F103B
:1005B0001112131415161718191A1B1C1D2F313080
:1005C000232D350405060708090A0B0C0D0E0F1024
:1005D0001112131415161718191A1B1C1D2F313060
:1005E000354C00DA0281FFD9F1DB20A4A62EAF0042
:1005F000A0C000A1C800AED580A81FD300408D14B4
:100600002000783C1E0000000000000000000000F8
:1006100000000000000000000000000000000000DA
:1006200000000000000000000000000000000000CA
:1006300000000000000000000080C04040C080803A
:1006400080808080808080C0404040C0800000006A
:10065000000000000000000000000000000000009A
:10066000000000000000000000000000000000008A
:10067000000000000000000000000000000000007A
:10068000000000000000000000000000000000006A
:10069000000000000000000000000000000000005A
:1006A000000000000000000000000000000000004A
:1006B00000000000000000E0781F000000000102C0
:1006C00006060606060656E70656E6040F38E0005C
:1006D000000000000000000000000000000000001A
:1006E000000000000000000000000000000000000A
:1006F00000000000000000000000000000000000FA
:1007000000000000000000000000000000000000E9
:1007100000000000000000000000000000000000D9
:1007200000000000000000000000000000000000C9
:1007300000000000000000BFE0000000000000001A
:1007400000000000000000010004010000C07F0064
:100750000000000000000000000000000000000099
:100760000000000000000000000000000000000089
:100770000000000000000000000000000000000079
:100780000000000000000000000000000000000069
:100790000000000000000000000000000000000059
:1007A0000000000000000000000000000000000049
:1007B000000000000000003F7163647838181010DA
:1007C000101030707070703018080C0603010000B3
:1007D0000000000000000000000000000000000019
:1007E0000000000000000000000000000000000009
:1007F00000000000000000000000000000000000F9
:1008000000000000000000000000000000000000E8
:1008100000000000000000000000000000000000D8
:1008200000000000000000000000000000000000C8
:100830000000000000000000C0603010103060A018
:10084000B0B0B0B0B0B0A0A0D090103060C0000088
:100850000000000000000000000000000000000098
:100860000000000000000000000000000000000088
:100870000000000000000000000000000000000078
:100880000000000000000000000000000000000068
:100890000000000000000000000000000000000058
:1008A0000000000000000000000000000000000048
:1008B00000000000000000F83F04000000000000FD
:1008C0000101000000000A38008A3900021FF80008
:1008D0000000000000000000000000000000000018
:1008E0000000000000000000000000000000000008
:1008F00000000000000000000000000000000000F8
:1009000000000000000000000000000000000000E7
:1009100000000000000000000000000000000000D7
:1009200000000000000000000000000000000000C7
:1009300000000000000000EFFCC00000000000000C
:10094000000000000000000000000080C0701F00D8
:100950000000000000000000000000000000000097
:100960000000000000000000000000000000000087
:100970000000000000000000000000000000000077
:100980000000000000000000000000000000000067
:100990000000000000000000000000000000000057
:1009A0000000000000000000000000000000000047
:1009B000000000000000000F1F18191E1E0E040486
:1009C000040C1C1C1C1C1C0C060203010000000073
:1009D0000000000000000000000000000000000017
:1009E0000000000000000000000000000000000007
:1009F00000000000000000000000000000000000F7
:100A000000000000000000000000000000000000E6
:100A100000000000000000000000000000000000D6
:100A200000000000000000000000000000000000C6
:100A30000000000000000000E030101010302050D6
:100A4000D0D0D0D0D0D0D0F0E0F0901030E0000086
:100A50000000000000000000000000000000000096
:100A60000000000000000000000000000000000086
:100A70000000000000000000000000000000000076
:100A80000000000000000000000000000000000066
:100A90000000000000000000000000000000000056
:100AA0000000000000000000000000000000000046
:100AB00000000000000000F81F040000000000001B
:100AC000000000000000041800441800020FFC00A1
:100AD0000000000000000000000000000000000016
:100AE0000000000000000000000000000000000006
:100AF00000000000000000000000000000000000F6
:100B000000000000000000000000000000000000E5
:100B100000000000000000000000000000000000D5
:100B200000000000000000000000000000000000C5
:100B3000000000000000000FFEE080000000000048
:100B40000000000000000000000080C060380F00BE
:100B50000000000000000000000000000000000095
:100B60000000000000000000000000000000000085
:100B70000000000000000000000000000000000075
:100B80000000000000000000000000000000000065
:100B90000000000000000000000000000000000055
:100BA0000000000000000000000000000000000045
:100BB0000000000000000000070F0C0D0F070202EC
:100BC00002060E0E0E0E06020301010000000000D8
:100BD0000000000000000000000000000000000015
:100BE0000000000000000000000000000000000005
:100BF00000000000000000000000000000000000F5
:100C000000000000000000000000000000000000E4
:100C100000000000000000000000000000000000D4
:100C200000000000000000000000000000000000C4
:100C300000000000000000E0301010101808286CC0
:100C4000243434343434BC3828B830101020C00078
:100C50000000000000000000000000000000000094
:100C60000000000000000000000000000000000084
:100C70000000000000000000000000000000000074
:100C80000000000000000000000000000000000064
:100C90000000000000000000000000000000000054
:100CA0000000000000000000000000000000000044
:100CB00000000000000000FB1E0400000000000017
:100CC00000000000000007000017000000FC030007
:100CD0000000000000000000000000000000000014
:100CE0000000000000000000000000000000000004
:100CF00000000000000000000000000000000000F4
:100D000000000000000000000000000000000000E3
:100D100000000000000000000000000000000000D3
:100D200000000000000000000000000000000000C3
:100D300000000000000000037FF8800040C08080B9
:100D400080808080808080C0406030180E0300006A
:100D50000000000000000000000000000000000093
:100D60000000000000000000000000000000000083
:100D70000000000000000000000000000000000073
:100D80000000000000000000000000000000000063
:100D90000000000000000000000000000000000053
:100DA0000000000000000000000000000000000043
:100DB0000000000000000000000103030303010025
:100DC0000103030303010000000000000000000015
:100DD0000000000000000000000000000000000013
:100DE0000000000000000000000000000000000003
:100DF00000000000000000000000000000000000F3
:100E000000000000000000000000000000000000E2
:100E100000000000000000000000000000000000D2
:100E200000000000000000000000000000000000C2
:100E3000000000000000000080C06030383C141E3C
:100E40001E1A0A0E0E0E0EEC0C0CE810608000004C
:100E50000000000000000000000000000000000092
:100E60000000000000000000000000000000000082
:100E70000000000000000000000000000000000072
:100E80000000000000000000000000000000000062
:100E90000000000000000000000000000000000052
:100EA0000000000000000000000000000000000042
:100EB000000000000000001FE12000000000000012
:100EC0000000000000000001000005000001F11E0C
:100ED0000000000000000000000000000000000012
:100EE0000000000000000000000000000000000002
:100EF00000000000000000000000000000000000F2
:100F000000000000000000000000000000000000E1
:100F100000000000000000000000000000000000D1
:100F200000000000000000000000000000000000C1
:100F30000000000000000000033FFCC080A0C0C013
:100F4000C0C0C0C0C0C04040602030180C070100C5
:100F50000000000000000000000000000000000091
:100F60000000000000000000000000000000000081
:100F70000000000000000000000000000000000071
:100F80000000000000000000000000000000000061
:100F90000000000000000000000000000000000051
:100FA0000000000000000000000000000000000041
:100FB000000000000000000000000001010101002D
:100FC000000101010100000000000000000000001D
:100FD0000000000000000000000000000000000011
:100FE0000000000000000000000000000000000001
:100FF00000000000000000000000000000000000F1
:1010000000000000000000000000000000000000E0
:1010100000000000000000000000000000000000D0
:1010200000000000000000000000000000000000C0
:10103000000000000000000000C0F0381C1E0E0F71
:101040000F050707070707F70706F60C38E08000CB
:101050000000000000000000000000000000000090
:101060000000000000000000000000000000000080
:101070000000000000000000000000000000000070
:101080000000000000000000000000000000000060
:101090000000000000000000000000000000000050
:1010A0000000000000000000000000000000000040
:1010B0000000000000007CC683818000000000006A
:1010C0000000000000000000000002000082C37E5B
:1010D0000000000000000000000000000000000010
:1010E0000000000000000000000000000000000000
:1010F00000000000000000000000000000000000F0
:1011000000000000000000000000000000000000DF
:1011100000000000000000000000000000000000CF
:1011200000000000000000000000000000000000BF
:10113000000000000000000000073E78F0A0A0C002
:10114000C0C0C0C0C0606060603030180E070100D1
:10115000000000000000000000000000000000008F
:10116000000000000000000000000000000000007F
:10117000000000000000000000000000000000006F
:10118000000000000000000000000000000000005F
:10119000000000000000000000000000000000004F
:1011A000000000000000000000000000000000003F
:1011B000000000000000000000000000000000002F
:1011C000000000000000000000000000000000001F
:1011D000000000000000000000000000000000000F
:1011E00000000000000000000000000000000000FF
:1011F00000000000000000000000000000000000EF
:10120000000000000000AE09025B00030100A0FA2C
:10121000090400000103010100092111010001225C
:1012200040000705810308000A09040100020300C9
:10123000000009211101000122220007058203207C
:101240000001070503032000010904020001030057
:10125000000009211101000122320007058403204A
:10126000000A1201100100000008574B4C57010002
:10127000010200011603570061006E006400650062
:1012800072006C0061006E006400000010034B00EF
:101290006900770069004B006500790000000403D5
:1012A000090411241FBECFEFDAE0DEBFCDBF04B6C4
:1012B00003FE27C08091CC049091CD04A091CE0470
:1012C000B091CF048730904BA740B04BD1F410922F
:1012D000CC041092CD041092CE041092CF0414BE10
:1012E00084B7877F84BF0FB6F894A895809160007B
:1012F000886180936000109260000FBEE0E0F8E328
:10130000099511E0A0E0B1E0E8EFF0E602C0059039
:101310000D92A837B107D9F724E0A8E7B1E001C0E2
:101320001D92AC3CB207E1F70E9485250C943C303D
:101330000C940000E8EDF0E080818E7F80831092B5
:10134000E2001092DA001092E100A0EEB0E08C9181
:1013500081608C9380818F77808319BCA7EDB0E08A
:101360008C918E7F8C9380818F7E80831092A904D4
:1013700008952091E4003091E50095E6A9012091BF
:10138000EC00822F817020FF06C08091E80080FF72
:1013900006C080E008952091E80022FD1AC08091E7
:1013A000B604882389F0853089F08091EB0085FDB3
:1013B0000FC02091E4003091E50042175307F9F285
:1013C0009150E1F684E0089582E0089583E0089565
:1013D00081E00895EF92FF920F931F93CF937C01CA
:1013E0008B010E94B909C82F811117C08091E800B4
:1013F00085FD0BC08091E8008E778093E8000E9405
:10140000B909882399F3C82F08C0F70181917F019A
:101410008093F1000150110949F78C2FCF911F9152
:101420000F91FF90EF9008958091B80487FF13C04B
:101430008091E80082FF06C08091E8008B7780935E
:10144000E80004C08091B6048111F2CF0895809124
:10145000B6048823D9F38091E80080FFF8CF80910B
:10146000E8008E77ECCF982F9093E900242F762F09
:1014700050E0891731F07091EC002091ED0050910F
:10148000F00021FD07C09F5F973071F78093E9005E
:1014900081E008953091EB003E7F3093EB00309176
:1014A000ED003D7F3093ED003091EB0031603093E3
:1014B000EB007093EC002093ED005093F00020912E
:1014C000EE0027FDE0CF80E00895CF92DF92EF920B
:1014D000FF920F931F93CF93DF93C8EDD0E08881E5
:1014E0008F7E8883E7EDF0E080818160808384E0F7
:1014F00082BF81E08093A90488818E7F888302EE79
:1015000010E0F80110821092DA0081EEC82ED12C82
:10151000F601108288818F7788838881806888832C
:1015200088818F7D888319BC1092B6041092B7040D
:101530001092B5041092B40490EEE92EF12CF7014C
:1015400080818B7F808388818160888342E060E036
:1015500080E00E94330AF60180818E7F8083F8014B
:10156000808181608083808188608083F7018081B1
:101570008E7F8083888180618883DF91CF911F91E6
:101580000F91FF90EF90DF90CF900895FC01809134
:10159000BE049091BF0486179707A0F061157105EE
:1015A00029F49091E8009E779093E80090E061150F
:1015B000710551F4911108C08091E80082FF34C098
:1015C00080E00895BC01F2CF8091B6048823C1F178
:1015D0008530C1F18091E80083FD30C08091E80042
:1015E00082FDEACF8091E80080FFE1CF8091F30097
:1015F0002091F200382F6115710519F0283031055E
:1016000058F091E02830310509F090E02091E80091
:101610002E772093E800CBCF81918093F100615029
:1016200071092F5F3F4FE7CF8091B604882341F0C7
:10163000853041F08091E80083FFBECF81E00895BE
:1016400082E0089583E00895089580E00895089564
:101650008091AB0408959C014FB7F8948091560295
:1016600090915702A0915802B09159024FBF821B2E
:10167000930B08952FB7F89460915602709157021A
:1016800080915802909159022FBF089580913302A2
:1016900081111092330208958091320290913102AB
:1016A000892B90913002892B80937A01909133029B
:1016B000992391F0892B80937A0120E08CE791E0C7
:1016C000FC013191CF0131112F5FF1E082389F078A
:1016D000B9F721110E94460BE0914A02F0914B02AA
:1016E000309731F00280F381E02D8AE791E0099490
:1016F0000895ECE7F1E09191891303C0DF011197A0
:101700001C9291E0E238F907B1F70895ACE7B1E037
:10171000EFEF90E02D91821751F0EF3F19F4211176
:1017200001C0E92F9F5F9630A9F7EF3F09F40895B4
:101730000E2E000CFF0BE658FE4F828308952DE01D
:10174000929F800D1124982F977086958695869587
:1017500025E0829FF0011124E350FE4F50E040E06D
:1017600080E0219130E0092E02C0369527950A9439
:10177000E2F721703327042E01C0220F0A94EAF702
:10178000822B4F5F5F4F4530510559F708952DE08B
:10179000929F800D1124982F977041E001C0440F53
:1017A0009A95EAF786958695869595E0899FF0014A
:1017B0001124E350FE4F90E080E070E05191DF0192
:1017C00011979B01082E02C0369527950A94E2F7DF
:1017D000217021952527242325272C9301968530D8
:1017E000910561F708958091FC019091CB019813C8
:1017F00001C008958F5F8770FACF882341F08095EC
:10180000909132028923809332020C944C0B0895FC
:10181000882339F090913202982B909332020C94E5
:101820004C0B08952091BD013091BE012817390756
:1018300071F09093BE018093BD01E0914A02F09156
:101840004B02309721F00084F185E02D0994089532
:101850002091BB013091BC012817390771F090939A
:10186000BC018093BB01E0914A02F0914B0230979A
:1018700021F00680F781E02D0994089590E080E042
:101880000E94280C90E080E00E94120C109231021D
:10189000109230020C944C0B6093C8047093C904EE
:1018A0008093CA049093CB040C943E0C0F931F9327
:1018B0006091C8047091C9048091CA049091CB04CE
:1018C0008B019C0106701127222733270630110552
:1018D0002105310529F468601F910F910C944C0C7F
:1018E000677FFACF0F931F9341E050E060E070E014
:1018F00004C0440F551F661F771F8A95D2F7CB018E
:10190000BA0160957095809590950091C8041091EA
:10191000C9042091CA043091CB046023712382232F
:1019200093231F910F910C944C0C90912F02809552
:10193000892380932F02282F277039F4282F082E0F
:10194000000C330B9217130621F49091390292FF89
:1019500007C08595859585950E94720C10922F027F
:1019600008950F931F9341E050E060E070E004C0E1
:10197000440F551F661F771F8A95D2F78091C804C0
:101980009091C904A091CA04B091CB048A019B0133
:10199000082B192B2A2B3B2BC901B8011F910F9142
:1019A0000C944C0C60933402709335028093360291
:1019B000909337020C943E0CE0914A02F0914B0256
:1019C000309721F00190F081E02D099480E0089596
:1019D000882309F452C0823871F40E94DC0C81FF24
:1019E0004CC089E30E94860B0E944C0B89E30E9445
:1019F000790B0C944C0B833859F40E94DC0C80FF5B
:101A00003CC083E50E94860B0E944C0B83E5EFCF20
:101A1000843859F40E94DC0C82FF2FC087E40E94B6
:101A2000860B0E944C0B87E4E2CF9CEF980F913A13
:101A3000F0F290E2980F983088F4877021E030E05F
:101A4000A90102C0440F551F8A95E2F7CA0180958B
:101A500090913202892380933202CBCF9BE5980F7D
:101A6000933020F490E080E00C94280C885A873161
:101A700020F490E080E00C94120C0895CF92DF9255
:101A8000EF92FF928C3724E1920750F469E070E006
:101A90000E94C02DCB01FF90EF90DF90CF90089572
:101AA000B0E0A0E0BC01CD016A50774D8F4F9F4F51
:101AB000982F872F762F662725EF38E241E050E0F8
:101AC0000E94E82D69017A01CA01B9010E94B02D76
:101AD0009B01AC01C701B6010E94B02D672F782F82
:101AE000892F99276115710521E08207910591F6EB
:101AF0006FEF7FEFCFCF8430E0F481111BC0909166
:101B00008000977F909380002F98282F30E0AFEFD0
:101B1000BFEF0E94362E23E030E040E050E00E940C
:101B2000E82DC9010E943E0D90938D0080938C009A
:101B3000089583E090918000986090938000E5CFB5
:101B4000282F220F220F220F90919A049770922B28
:101B500090939A04987F21E009F420E090919A04F0
:101B600020FB90F990939A040C947B0DFA0181115B
:101B700001C0FB0109948091C304982F9E7F29F432
:101B8000817082608093C30408958A30E8F3817085
:101B90008860F8CFAF92BF92DF92EF92FF920F93DF
:101BA0001F93CF93DF93082F162FE901E42FF0E066
:101BB000E05CFE4F611110C0E4915E2F4E2F49830F
:101BC000E8835A83DF91CF911F910F91FF90EF909F
:101BD000DF90BF90AF900895E62EF12C4491D42E63
:101BE000E42FF0E026E0829FC00111242FEF30E0C7
:101BF000B9010E94C02D802F90E0880F991F55E5F4
:101C0000569FD001579FB00D11248A1B9B0B982F14
:101C1000990F890F5901AE18BF08AE9ED001AF9E33
:101C2000B00DBE9EB00D11245B2F189F80011124B2
:101C3000012F11275901A01AB10AAE9E8001AF9E53
:101C4000100DBE9E100D11245901A81AB108AE9CAA
:101C5000C001AF9C900DBE9C900D1124892F992737
:101C6000281B390B2E9FC0012F9F900D3E9F900D7A
:101C70001124E92F62307105A1F050F4611571054E
:101C800009F49DCF6130710581F0EB2F512F97CF73
:101C90006430710569F080F06630710509F48FCF0A
:101CA000F4CFE42F4B2F592F8ACFE42F412F87CF2A
:101CB000EB2F542F492F83CF4B2F5D2DE12F7FCF5B
:101CC000F894E82FE295EF70F0E031A1282F2F7003
:101CD00081E090E001C0880F2A95EAF7982F90954F
:101CE000932391A392A1892B82A378940895909134
:101CF000380292FF06C0282F28712830F9F4877F18
:101D0000846093FF06C0282F28712831F1F4877E64
:101D100084612091390220FF06C0382F3871383095
:101D2000D9F4877F816021FF06C0282F28712831D0
:101D3000D1F4877E816194FD877E0895282F2471D8
:101D40002430F9F68B7F8860DCCF282F2471243172
:101D500001F78B7E8861DDCF382F3171313019F773
:101D60008E7F8860E0CF282F2171213121F78E7E70
:101D70008861E1CF80FF08C0469A81FF07C02E9A94
:101D800082FF06C02D9A08954698F7CF2E98F8CF77
:101D90002D980895CF92DF92EF92FF920F931F93A9
:101DA000CF93DF936C017B0164E670E088E70E94CB
:101DB000CD2CEC0197FD12C010E000E0F601E00F21
:101DC000F11F849164E670E00E94292DEC01892BBB
:101DD00029F40F5F1F4F0E151F0581F70E94AC2DD0
:101DE000CE01DF91CF911F910F91FF90EF90DF9087
:101DF000CF900895CF93C0918A0480918B0488235B
:101E0000D1F00E943A0B605A75418F4F9F4F6093FB
:101E10008604709387048093880490938904C11189
:101E200008C062E070E080E395E00E94CA0E892B52
:101E300029F0C0918A048C2FCF91089581E080937E
:101E40008A04F7CFCF9384E090E00E945D2EC82FE4
:101E500082E290E00E945D2E982F8C2FCF91089502
:101E60000F931F93CF93DF93C42FD0E0CC0FDD1FD0
:101E70002AE1629FC00DD11D11243CE9839FC00D52
:101E8000D11D1124CE0187960E945D2E082F10E0EF
:101E9000102F0027CE0188960E945D2E9801282BD6
:101EA000C901DF91CF911F910F910895462F843082
:101EB00038F4763028F46D3018F4672F0C94300F16
:101EC00090E080E00895CF93DF930E94560FEC01DD
:101ED00082389105A9F1D8F58133910509F496C0AE
:101EE00048F58932910509F48AC08A9709F495C0AA
:101EF000C11522E5D20708F0B6C0C11531E5D307F8
:101F000008F026C1C83ED10508F09CC0C03ED105EE
:101F100060F5C83AD10508F087C0C53AD10508F088
:101F2000EFC0C130D10509F12097F9F0C430D105D7
:101F3000E0F440C08533910509F45AC0C997C1F651
:101F400080913802837089F0C0EED0E00EC0833EED
:101F5000910599F170F4803E910501F1823E910561
:101F600039F68091380282FD21C0CE01DF91CF91F8
:101F70000895863E910561F1873E910571F1843E99
:101F8000910509F0B5CF8091390281FFEECF8091A4
:101F90003802C7EED0E084FD0DC0E7CF8091380253
:101FA00080FD07C19091390290FFDFCFC3EED0E0F2
:101FB00084FFDBCFD0E0C0E0D8CF8091380282FD33
:101FC000FBC09091390290FDBFCF84FFCECFF2CFFE
:101FD0008091380283FDDDCFC8CF8091380283FD28
:101FE000EEC09091390291FFF0CFC4EED0E0BDCFAA
:101FF0008091380285FFB9CFC9E2D0E0B6CF809199
:10200000380285FFB2CFC5E3D0E0AFCF8091380270
:1020100086FFABCFCAE2D0E0A8CF8091380286FF1E
:10202000A4CFC1E3D0E0A1CFCF3BD10518F6C85A69
:10203000D0E0CC0FDD1FC15EDE4F0990D881C02DEE
:10204000D46493CFC11540E5D40708F064C0C1152E
:1020500080E4D80708F05CC0CE019A9581159F41B5
:1020600008F483CFA7CFC11536E5D30718F5C115FE
:1020700045E5D40708F084C0C11584E5D80708F009
:102080007AC09C2F969596959E0123703327C11593
:10209000D34508F462C0C1E0D0E002C0CC0FDD1F20
:1020A0002A95E2F730E2939FC0011124C82BD92B67
:1020B000DA685BCFC1158AE5D80778F4C11599E5D0
:1020C000D90708F068C0C11528E5D20708F472CF17
:1020D000DC2FCC27C06FD06A48CFCE019056811537
:1020E000904208F067CF8D2F8F710E94770E90E09D
:1020F000982F882788279F719C012C2BE90149C0C4
:10210000C55AD0E0C45EDE4FC881D0E0D0642DCF88
:10211000DF70D06A2ACFCE01E4E096958795EA95E4
:10212000E1F783702C2F26952695237040E2249F9B
:1021300090011124382B8C2F8370C1E0D0E002C0B5
:10214000CC0FDD1F8A95E2F7C22BD32BDC680DCFB5
:10215000DC2FCC27C16FD06A08CFC1E0D0E002C02D
:10216000CC0FDD1F2A95E2F720E2929FC0011124D7
:10217000C82BD92BEBCFDC2FCC27C46FD06AF5CE80
:102180008C2F0E94770EC82FD0E0DC2FCC27CC27D5
:10219000DF71D062EACE8C2F8F700E94770E34E010
:1021A000D695C7953A95E1F7CF709C2FEC01D06991
:1021B000DCCEC9E3D0E0D9CEC2EED0E0D6CEC6EEBA
:1021C000D0E0D3CEBF92CF92DF92EF92FF920F93E7
:1021D0001F93CF93DF938C01C090C804D090C904A3
:1021E000E090CA04F090CB048091340290913502C3
:1021F000A0913602B0913702C82AD92AEA2AFB2ACE
:10220000CFE1D0E0BC2ED701C6010C2E04C0B6959C
:10221000A795979587950A94D2F780FD0EC02197D0
:1022200088F7B12C8B2DDF91CF911F910F91FF90EB
:10223000EF90DF90CF90BF900895B8018C2F0E944F
:10224000630F019761F3EECFCF93DF93EC010E9410
:10225000E210BE01DF91CF910C94630F0E94241114
:10226000292F2F7092959F7092509E3078F4E92F0D
:10227000F0E0E25CFF4C0C94292E803F19F020F432
:10228000883E20F481E00895843FE1F380E00895E2
:10229000883EC0F3813FD1F7F5CF822F8695869592
:1022A000869508956F927F928F929F92AF92BF9280
:1022B000CF92DF92EF92FF920F931F93CF93DF9312
:1022C00080ECC82E82E0D82E9DEDE92EF12CE7019E
:1022D000CC59D10936011BC0F50185909490692D28
:1022E000C8010E94712E682DC80101960E94712EAE
:1022F00082E0A80EB11C0E5F1F4FC017D10761F717
:102300008AE1680E711C6A96CE15DF0529F08E01F0
:102310000A5111095301E0CF7E018CE9E80EF11C4E
:102320008CE9C80ED11C8DE4E81683E0F80679F636
:10233000DF91CF911F910F91FF90EF90DF90CF90A1
:10234000BF90AF909F908F907F906F900895CF93A4
:10235000C0913902C2FB992790F9981781F080FB50
:10236000C2F9C09339026091380284E090E00E9483
:10237000712E6C2F82E290E0CF910C94712ECF9150
:102380000895CF93DF93C7E9D2E060E0CE010E94C9
:10239000712E2196C11584E0D807B9F7DF91CF914E
:1023A0000895682F86E090E00C94712E80919A0435
:1023B00081FF11C08D7F80939A040E94D11180917A
:1023C0006F008E7F80936F0080919A04869586952A
:1023D00086950C947B0D089580919A0481FD10C020
:1023E000826080939A040E94D11110923C02109254
:1023F0003B0210923A0280916F00816080936F00DF
:102400000895CF93DF9300D00F92CDB7DEB79091B0
:10241000B604943011F589837B836A839093E90035
:102420008FEF9091E800815095FD06C095ED9A954B
:10243000F1F700008111F5CF8091E80085FF0DC014
:1024400050E040E063E070E0CE0101960E94EA09AE
:102450008091E8008E778093E8000F900F900F90A6
:10246000DF91CF910895BC0184E00C940112BC016E
:1024700083E00C940112CF93DF93EC0181E0809311
:10248000E9008FEF9091E800815095FD06C095ED31
:102490009A95F1F700008111F5CF8091E80085FF52
:1024A00014C050E040E068E070E0CE010E94EA090C
:1024B0008091E8008E778093E80088E0FE01ACEA26
:1024C000B4E001900D928A95E1F7DF91CF910895E4
:1024D00081E08093E00080E28093D8001092C900F0
:1024E0008FE19EE40197F1F700C0000087E090EBD8
:1024F000DC018093CC049093CD04A093CE04B093E0
:10250000CF0488E19CE00FB6F894A8958093600012
:102510000FBE90936000FFCFCF93C82F882309F49C
:1025200088C08238C1F40E94DC0C81FD82C089E33E
:102530000E94860B0E944C0B2FEF81EE94E02150FD
:1025400080409040E1F700C0000089E30E94790BD1
:10255000CF910C944C0B8338A1F40E94DC0C80FDCD
:1025600068C083E50E94860B0E944C0B2FEF81EE22
:1025700094E0215080409040E1F700C0000083E5E6
:10258000E5CF8438A1F40E94DC0C82FD52C087E4C0
:102590000E94860B0E944C0B2FEF81EE94E021509D
:1025A00080409040E1F700C0000087E4CFCF8CEF7F
:1025B0008C0F813A68F4ECE7F1E08191C81799F14A
:1025C00021E0E238F207C9F78C2F0E94860BC0CFBA
:1025D00080E28C0F883068F4C77021E030E001C0E1
:1025E000220FCA95EAF780913202822B8093320241
:1025F000AFCFEBE5EC0FE33040F4F0E0E45EFE4FEC
:10260000808190E0CF910C94280CC85AC73188F48F
:10261000EC2FF0E0EE0FFF1FE15EFE4F8081918115
:10262000CF910C94120C8C2F0E94790B0E944C0BB2
:10263000CBCFCF9108951F93CF93DF93182FD0E086
:10264000C0E0893311F4C0E5D0E0812F0E948C12E4
:10265000209731F4812FDF91CF911F910C94E80CDA
:102660008FE99FE00197F1F700C000002197F0CFBC
:102670008091C30480FD0AC0E5E8F1E01182108278
:102680001282339651E0EB3BF507C1F7879A31B3DD
:102690003F7721B320684FB7F89485E891E0FC01BB
:1026A0005191CF0168E021BB000000C057FF31BB52
:1026B000550F000000C000C000C031BB00C06A95CB
:1026C00091F7F1E08B3B9F0751F74FBF8FE594E007
:1026D0000197F1F700C0000008959091C30490FFA6
:1026E0000CC0E5E8F1E0818360834283339691E09A
:1026F000EB3BF907C1F70C94381308950F931F9320
:10270000CF93DF9300D00F92CDB7DEB78C018091CD
:10271000C30480FF10C09E012F5F3F4F4091C6044D
:102720006091C504F80184810E94CA0D4B816981C2
:102730008A810E946D13F80184818F5F84830F90DA
:102740000F900F90DF91CF911F910F9108951092EC
:102750003202ECE7F1E086E0DF011D928A95E9F7AD
:102760000C943E0C1F93CF93DF93CDB7DEB7AA979F
:102770000FB6F894DEBF0FBECDBF88EB94E020917A
:10278000F100DC012D93CD01B4E0803C9B07B9F74B
:102790008091B904833009F471C0B8F4813009F430
:1027A00048C0823009F4B2C08091E80083FF3AC18A
:1027B0008091B8049091B9049A3008F033C1E92FA0
:1027C000F0E0E45BFF4C0C94292E8A3009F48DC0B4
:1027D0008B3009F470C0893039F78091B8048132A8
:1027E00019F78091BC049091BD04009711F00297F5
:1027F000D9F68091E800877F8093E8008091E80017
:1028000082FF37C09091F3008091F200029729F483
:102810008091F1008B7F813021F48091F1008093D1
:10282000AB048091E8008B778093E8000E94140A43
:10283000BBCF8091B804813A09F0B6CF8091E8000F
:10284000877F8093E8008091BC049091BD04892B20
:1028500061F468E08CEA94E070E00E94C60A80911E
:10286000E8008B778093E8009FCF60E090E080E005
:10287000F3CF8091B6048111C1CF96CF8091B80477
:10288000813A09F091CF8091BC049091BD04892BCD
:1028900009F08ACF8091E800877F8093E8008091DB
:1028A000E80080FFFCCF809116018093F1008091B9
:1028B000E8008E77B9CF8091B804813209F074CFE7
:1028C0008091BC049091BD04892B09F06DCF80915B
:1028D000E800877F8093E8000E94140A8091BA0480
:1028E000809316010E94A7135FCF8091B8048132B4
:1028F00009F05ACF8091E800877F8093E8000E941A
:10290000140A8091BB048093AA044ECF8091B8042E
:10291000813A09F049CF8091E800877F8093E800F1
:102920008091E80080FFFCCF8091AA04BECF803860
:1029300099F0823809F076C08091BC048F7087309E
:1029400008F070C08093E9008091EB0085FB882738
:1029500080F91092E90006C08091B4049091B5040A
:10296000911182609091E800977F9093E8008093A6
:10297000F1001092F1008091E8008E77B5C18823B4
:1029800009F4A2C1823009F04DC08091BA048111CE
:10299000A6C18091BC048F702FEF280F263008F05D
:1029A00041C08093E9002091EB0020FF98C1933053
:1029B00031F48091EB0080628093EB0090C19091A4
:1029C000EB0090619093EB0021E030E001C0220F1A
:1029D0008A95EAF72093EA001092EA008091EB00D2
:1029E0008860EACF81111EC01091BA041F778091D0
:1029F000E3008078812B8093E3008091E800877F5B
:102A00008093E8000E94140A8091E80080FFFCCFC8
:102A10008091E30080688093E30082E0111183E0FD
:102A20008093B6048091E80083FF0AC08091E8009B
:102A3000877F8093E8008091EB0080628093EB00B9
:102A4000AA960FB6F894DEBF0FBECDBFDF91CF912F
:102A50001F9108958058823028F72091BA04309150
:102A6000BB042C3DE3E03E07A1F583E08A838AE2C4
:102A700089834FB7F894DE01139620E03EE051E2DF
:102A8000E32FF0E050935700E49120FF03C0E2955C
:102A9000EF703F5FEF708E2F90E0EA30C0F0C79686
:102AA0008D939D932F5F243159F74FBF8091E8009C
:102AB000877F8093E8006AE270E0CE0101960E9471
:102AC000C60A8091E8008B778093E800ABCFC09670
:102AD000E7CF8091BC049091BD04432F552743302C
:102AE000510509F44AC078F54130510509F47AC01E
:102AF0008BE590E0E7E0F2E14230510509F092CF3A
:102B00002091E800277F2093E8002091BE043091B7
:102B1000BF048217930708F49C0140E0211531059A
:102B200009F065C0411163C08091E80082FDC9CF02
:102B30008091B604882329F2853019F28091E8004B
:102B400083FFF2CFBECF4132510509F43CC042327F
:102B5000510509F067CF8330910508F063CFFC0180
:102B6000EE0FFF1FE559FE4F0190F081E02D8859CF
:102B70009E4FDC018C9190E01AC033272130310543
:102B8000D1F02115310561F02230310509F04ACF2D
:102B9000E4E7F2E1E4918E2F90E0E4E7F2E107C090
:102BA000EEE9F2E1E4918E2F90E0EEE9F2E1009798
:102BB00009F438CFA5CFECE8F2E1E4918E2F90E054
:102BC000ECE8F2E1F4CF8330910508F02BCF880FC9
:102BD000991FFC01EF58FE4F0190F081E02D89E034
:102BE00090E08ECF82E190E0E2E6F2E189CF809141
:102BF000B604882309F465CF853009F462CF80914B
:102C0000E80083FD5ECF8091E80082FD8DCF80914A
:102C1000E80080FF83CF9091F3008091F2002115AE
:102C2000310519F08830910550F041E0089709F01E
:102C300040E08091E8008E778093E8006FCF449168
:102C40004093F1003196215031090196E8CF803848
:102C500009F0E8CE8091E800877F8093E8008091BA
:102C6000B7048093F10087CE8111DCCE1091BA04B5
:102C7000123008F0D7CE8091E800877F8093E8007B
:102C80001093B7040E94140A112311F084E005C0C8
:102C90008091E30087FDFACF81E08093B60442E0A3
:102CA00061EC81E00E94330A42E261EC84E00E9420
:102CB000330A42E261EC82E00E94330A42E260ECB5
:102CC00083E00E94330AAECE8091BA04813009F0CD
:102CD000A9CE81E0933009F080E08093B504109292
:102CE000E9008091E800877F8093E8000E94140A41
:102CF00099CE6AEE7EEF90E080E00E948F2E60E039
:102D000082E090E00E94712E60E083E090E00E94FB
:102D1000712E1092340210923502109236021092E7
:102D2000370260E084E090E00E94712E60E082E271
:102D300090E00E94712E60E085E090E00E94712E8C
:102D400060E086E090E00E94712E6FEF87E090E0F7
:102D50000E94712E40E050E0BA0188E090E00E94AD
:102D6000832E60E08DE090E00E94712E40E050E004
:102D7000BA0188E190E00E94832E60E087E190E054
:102D80000E94712E40E050E0BA018CE190E00E9478
:102D9000832E70E060E080E290E00E948F2E40E0A1
:102DA00050E0BA0188E190E00E94832E40E050E0BC
:102DB000BA018FE090E00E94832E40E050E0BA011B
:102DC00083E190E00C94832E90E080E00E946B2ED3
:102DD0008A3E9E4F51F00E94791680919A04847029
:102DE000896180939A040E94D11186E090E00E944C
:102DF0005D2E80939A04803220F0877088618093E2
:102E00009A0490919A04892F817090FF04C0892FB1
:102E10008695869586950C947B0DCF92DF92EF92E6
:102E2000FF926B017C010E94BB0DB701A60188E0F7
:102E300090E0FF90EF90DF90CF900C94832EEF9274
:102E4000FF920F931F93CF93DF9300D00F92CDB7D4
:102E5000DEB7182FF62E042FE22E8091C30480FFD8
:102E600028C0E82FE695F0E0E95EFE4F9081909350
:102E70009B048E7F823039F59E012F5F3F4F812F5B
:102E80000E94CA0D4B8169818A810E946D13109343
:102E9000C404F092C5040093C604EE2051F0609182
:102EA000C3047091C4048091C5049091C6040E942B
:102EB0000D170F900F900F90DF91CF911F910F91F1
:102EC000FF90EF900895923011F71091C404DFCF76
:102ED000E3ECF4E0438128E0421B08F440E021E009
:102EE000628181810C941F17E3ECF4E0438128E0B8
:102EF000420F08F44FEF21E0628181810C941F178B
:102F0000E3ECF4E0628128E0621B08F460E021E079
:102F1000438181810C941F17E3ECF4E0628128E087
:102F2000620F08F46FEF21E0438181810C941F1739
:102F3000E3ECF4E0818121E04381628188500C94CC
:102F40001F17E3ECF4E0818121E043816281885F17
:102F50000C941F178091C704882319F08150809327
:102F6000C7046091C3047091C4048091C50490911A
:102F7000C6040C940D178091C704833018F48F5F3A
:102F80008093C7046091C3047091C4048091C50408
:102F90009091C6040C940D17E3ECF4E083E0808379
:102FA00011828FEF82838383148260817181828199
:102FB00093810C940D171F920F920FB60F9211244C
:102FC0002F933F934F935F936F937F938F939F9331
:102FD000AF93BF93CF93DF93EF93FF93D091E9002B
:102FE000DF708091EC00C82FC17080FDC0E81092A6
:102FF000E9008091F000877F8093F00078940E9430
:10300000B2131092E9008091F00088608093F00084
:10301000CD2BCF70C093E900FF91EF91DF91CF915D
:10302000BF91AF919F918F917F916F915F914F91E0
:103030003F912F910F900FBE0F901F9018951F92E8
:103040000F920FB60F9211242F933F934F935F93DC
:103050006F937F938F939F93AF93BF93EF93FF9360
:103060008091E10082FF09C08091E20082FF05C0EB
:103070008091E1008B7F8093E1008091DA0080FFF6
:1030800024C08091D80080FF20C08091DA008E7F1C
:103090008093DA008091D90080FF9BC080E189BDD8
:1030A00082E189BD09B400FEFDCF81E08093B604C2
:1030B0008091A904811109C00E949A090E94650AA1
:1030C0008091E20084608093E2008091E10080FFC3
:1030D00017C08091E20080FF13C08091E2008E7FD4
:1030E0008093E2008091E20080618093E200809111
:1030F000D80080628093D80019BC85E08093B60424
:103100008091E10084FF29C08091E20084FF25C006
:1031100080E189BD82E189BD89B5982F917080FFDA
:10312000FBCF8091D8008F7D8093D8008091E10003
:103130008F7E8093E1008091E2008F7E8093E20099
:103140008091E20081608093E2008091B70488233F
:1031500009F445C084E08093B6048091E10083FFC8
:1031600027C08091E20083FF23C08091E100877F28
:103170008093E10082E08093B6041092B7048091BE
:10318000E1008E7F8093E1008091E2008E7F80934A
:10319000E2008091E20080618093E20042E060E022
:1031A00080E00E94330A8091F00088608093F000F4
:1031B000FF91EF91BF91AF919F918F917F916F910F
:1031C0005F914F913F912F910F900FBE0F901F90E5
:1031D000189519BC1092B6041092A90476CF80916C
:1031E000E30087FD93E09093B604B7CF78941F92E5
:1031F0001FB61F9211248F939F93AF93BF9380911B
:10320000560290915702A0915802B091590201962E
:10321000A11DB11D8093560290935702A0935802AE
:10322000B0935902BF91AF919F918F911F901FBE94
:103230001F9018952FB7F8948091560290915702DD
:10324000A0915802B09159022FBF08950F931F9378
:10325000CF93DF93C62FD42F022FFC0182818823C6
:10326000A1F06093C2040E941A199093C104809344
:10327000C004C77081E001C0880FCA95EAF7DF91EA
:10328000CF911F910F910C94080C8091C204681388
:1032900035C08091C0049091C1040E942B0B883CE2
:1032A000910560F510E21D0FCD17B9F080E28C0F8B
:1032B000883040F4C77081E001C0880FCA95EAF7F2
:1032C0000E94FD0B183048F481E09D2F977001C0DB
:1032D000880F9A95EAF70E94080C802F0E941B1312
:1032E000183098F4D77081E001C0880FDA95EAF7BA
:1032F000DF91CF911F910F910C94FD0BC77081E06E
:1033000001C0880FCA95EAF7F3CFDF91CF911F91E3
:103310000F9108956091C304669570E041E050E01C
:1033200080E091E00E94502E892B19F481E0809377
:103330009C040E941A199093500280934F020895A2
:103340009091C30490FF36C09170811129C09260A2
:103350009093C304662351F06091C3047091C40438
:103360008091C5049091C6040E940D176091C3041A
:10337000669570E041E050E080E091E00E94502EC0
:10338000892BA9F010929C0481E08093520220E0E6
:103390004091C6046091C5048091C4040C941F1729
:1033A000853010F09860D4CF880F982BD1CF0E9431
:1033B0008A19EACF08958091C3048695815009F453
:1033C00084E061E00C94A0198091C30486958F5F1E
:1033D000853008F081E061E00C94A0198091C3046D
:1033E00080FF07C0869582588F77823010F40C9446
:1033F000E41961E082E00C94A0193F924F925F9231
:103400006F927F928F929F92AF92BF92CF92DF92F4
:10341000EF92FF920F931F93CF93DF9300D000D0D2
:103420000F92CDB7DEB78C01FC0183819481892B8B
:1034300031F08081918189238F3F09F068C60F9018
:103440000F900F900F900F90DF91CF911F910F91E0
:10345000FF90EF90DF90CF90BF90AF909F908F90B4
:103460007F906F905F904F903F9008950E94E21080
:10347000F82E682F89819A810E94C70B69817A8111
:103480008F2D0E94560F7C01F8018281882309F458
:103490005DC0C70190568115F0E29F0750F0905E25
:1034A000811520E1920728F0915C81159F4108F079
:1034B00087C0C70199279C01245031092432310566
:1034C00020F08B970E9708F041C08091C001909139
:1034D000C1010097A9F10E942B0BD090BF019C0164
:1034E00050E040E060E67AEE80E090E00E940A2E34
:1034F000CA01B90125E030E040E050E00E940A2E08
:10350000CA01B9016D197109810991090E94432FFE
:1035100027EA39E747E45DE30E94CF2F4B015C01C6
:103520006D2D70E090E080E00E94432F9B01AC0184
:10353000C501B4010E94A62E0E94122F6093BF0104
:103540000E941A199093C1018093C001F8018281F1
:10355000882309F4CFC5C70182519F45409708F0E1
:1035600093C58FEF93E00E945D2EFEEEEF0E57E9BC
:10357000852E52E0952E8823D1F180912F028770FD
:1035800009F45DCFF8018281882309F458CF82E0E5
:103590000F900F900F900F900F90DF91CF911F9190
:1035A0000F91FF90EF90DF90CF90BF90AF909F90E2
:1035B0008F907F906F905F904F903F900C94950C00
:1035C0008FEFE816F10421F018F090E080E073CF5F
:1035D000C70171CF811424E0920679F2C4010E94E0
:1035E0005D2E811101C0EA943FEF831A930AE11026
:1035F000F1CF1C821B82442443944AE0342E740190
:103600008FEFE81AF80AC4010E945D2E89831A829E
:10361000882309F4B2CF9FEF980F933000F58A8387
:10362000498292E0890E911CC7010E945D2E8B8316
:10363000882309F4A2CFFE0131967F01F701208192
:103640002223E9F2213009F049C091818281913031
:1036500041F4F2E0EF0EF11C0E941B1309C0470178
:10366000EACF923049F422E0E20EF11C0E948C1263
:103670003FEFE31AF30AE2CF933031F432E0E30E86
:10368000F11C0E94E80CF4CF943021F08FEFE81A7F
:10369000F80AEECF92E0E90EF11C30E020E0B7012D
:1036A0006F5F7F4FF70141818053990B8A309105FD
:1036B00050F021503109E0F28FE99FE00197F1F7D6
:1036C00000C00000F6CF329EF001339EF00D1124B1
:1036D0009C012E0F3F1F842F7B01E1CFE22FF0E0F2
:1036E000EE59FA4F5490822F86958695869590E0F4
:1036F000FC01EE5AFA4F64902770712C022E02C022
:10370000759467940A94E2F7E1E06E227724FC0155
:10371000EE5BFA4FA490B12C022E02C0B594A79490
:103720000A94E2F7F1E0AF22BB24FC01EE5CFA4F11
:10373000C490D12C02C0D594C7942A95E2F721E019
:10374000C222DD246114710419F081EE0E948C12F2
:10375000A114B10419F086EE0E948C12852D0E94EE
:103760001B13AB2819F086EE0E94E80C672819F0AD
:1037700081EE0E94E80CCD2809F47ACF8CE26CCF60
:1037800081E00E94B10C03C081E00E94720C0E9493
:10379000560CF3CE82E0F5CF83E00E94A00D80911D
:1037A0009A040E94D111E9CE80E0F7CF80919A046B
:1037B000982F987F79F0885080939A04887F91E0C1
:1037C00009F490E080919A0490FB80F980939A0428
:1037D0000E94D11180919A048695869586950E94C3
:1037E0007B0DCBCE80919A04982F969596959695C1
:1037F000933040F49F5F990F990F990F8770892B31
:1038000080939A0480919A048160E0CF80919A0419
:1038100080FF07C08E7F80939A040E94D11180E0C0
:10382000DECF80FDAACE816080939A04813019F4A6
:1038300089E080939A0480919A04CACF90919A0467
:10384000892F8695869586958F5F8F7197708430C6
:1038500048F4880F880F880F892B80939A048091F1
:103860009A04ACCF90939A04FACF80919A0481FF86
:1038700003C00E94D61181CE0E94EC117ECE27E2B9
:1038800045EE65EE2BC526E241EE60EE27C527E248
:1038900045EE64EE23C526E241EE62EE1FC528E246
:1038A00041E0EFCF80913802806196E0E9169CE517
:1038B000F90609F4A2C0809138028860E7E0EE16AC
:1038C000ECE5FE0608F499C080913802806295C04C
:1038D000809138028D7FFCE0EF16FCE5FF0609F4CD
:1038E0008CC078F4809138028C603AE0E3163CE5B5
:1038F000F30609F482C008F493C0809138028E7FE9
:103900007CC080913802877F9EE0E9169CE5F9062D
:1039100009F473C0809138028B7FEFE0EE16ECE57E
:10392000FE0608F46AC0809138028F7E66C0FBEF05
:10393000EF16FCE5FF0609F46BC068F533E1E3160A
:103940003CE5F30609F47AC090F491E1E9169CE5B0
:10395000F90609F46FC0E2E1EE16ECE5FE0609F0A7
:103960000CC50E94A713809138028F7746C0F5E1FD
:10397000EF16FCE5FF0609F469C008F47DC08091EC
:10398000390281603AEFE3163CE5F30609F0F5C42D
:1039900080933902F2C48FEFE8168CE5F80609F43B
:1039A00051C0A0F4809139028D7FEDEFEE16ECE569
:1039B000FE0671F3809139028E7FFEEFEF16FCE573
:1039C000FF0630F3809139028360E2CF21E0E216F6
:1039D0002DE5F20609F459C008F444C060E082E025
:1039E000E8168DE5F80609F0C8C48EE090E00E9464
:1039F000712EC3C480913802816080933802BDC4A7
:103A0000809138028260F9CF809138028460F5CFCE
:103A1000809139028260BCCF809138028064EDCF02
:103A20000E94A713809138028068E7CF8091380206
:103A30008F7DE3CF809138028F7BDFCF809138027A
:103A4000837FDBCF809139028C7FA2CF80913802B7
:103A500082FB992790F921E0922790FB82F990FB55
:103A600083F9CBCF80913902982F909591708E7FFA
:103A7000892B90FB81F98CCF0E94A713909138027B
:103A8000892F97FB87F98058B8CF61E0AECF80913E
:103A9000320296E1E9169CE5F90609F049C38A7AF3
:103AA00091E009F490E09093C401811106C089E28D
:103AB0000E94860B0E944C0B60CD85E3F9CF85E315
:103AC00090C48091C30480FF1BC08E7F8093C30489
:103AD0006091C3047091C4048091C5049091C604A0
:103AE0000E940D1710929C04EFEFF0E722E0E150E6
:103AF000F0402040E1F700C000000E9438133DCDA7
:103B000081608093C30461E086950E94A01935CD41
:103B10004BED59E164EE79E10E94B60D2ECD44EEF5
:103B200059E16BED79E1F8CF48E957E161EA77E1D6
:103B3000F3CF41EA57E168E977E1EECF40E857E19A
:103B40006CE877E1E9CF4CE857E160E877E1E4CF52
:103B500044E757E168E677E1DFCF4BEB57E16AEAEC
:103B600077E1DACFFBE5EF16FDE5FF0611F12CE575
:103B7000E2162DE5F20609F00DC38091390282FBB1
:103B8000882780F991E089270E94A71103C30E942A
:103B9000A7133FEF84E39CE0315080409040E1F771
:103BA00000C000000E9468120E947916E6CC81E0F5
:103BB000EBCF80E0E9CFC7010E949F0BD82EF9C25E
:103BC0002F2D2F70A22E8F2D807F19F0A29490EFB1
:103BD000A922DD20C9F0AA2069F080E28E0D88308C
:103BE00010F081100BC080913202A82AA0923202FC
:103BF0000E944C0B8E2D0E948C1219C080913102B4
:103C0000A82AA0923102F4CF8E2D0E94E80CAA209F
:103C100071F0A09480E28E0D883010F081103FC0CA
:103C200080913202A822A09232020E944C0B232DD6
:103C30002850330B2430310520F40E94DC0C0E9404
:103C4000BA0ECC2009F4FBCB80912F0280FDF7CB7C
:103C5000F80112828595859585950E94B10CC80161
:103C60000E94FD1980912F028595859585950F906D
:103C70000F900F900F900F90DF91CF911F910F91A8
:103C8000FF90EF90DF90CF90BF90AF909F908F907C
:103C90007F906F905F904F903F900C94720C80914A
:103CA0003102A822A0923102C0CF3F2D3F70932E47
:103CB0008F2D807F803219F0929480EF9822882097
:103CC00071F081E0881681F1DD20D9F1AA2091F10F
:103CD000F801858180FF8ECF8F7085832BC0DD201A
:103CE000B1F090913302892D892BA11003C00E945D
:103CF000080C9DCFE1E0AE12FACF2091390222FDEF
:103D000096CF981709F493CF8093330290CFA110E8
:103D100006C00E94460B892D0E94FD0B88CFF1E062
:103D2000AF1609F484CFF5CFDD2031F025E02A1558
:103D300008F47DCF892DDBCF34E03A1508F477CF36
:103D4000EACFAA2041F3F9E38F1209C02FEF37EE33
:103D500083E0215030408040E1F700C000008E2D0C
:103D60000E94E80C64CF8F2D86958695837061F054
:103D7000813009F05CCFC7019370D11002C090E090
:103D800080E00E94120C53CFC7019370D11002C083
:103D900090E080E00E94280C4ACF8F2D837009F0BC
:103DA00066C0D11044CF8E2D829586958770880F7E
:103DB000880F6E2D6F70462E512C712C612C082EA1
:103DC00004C0440C551C661C771C0A94D2F740E0D2
:103DD00050E0BA01E4FE0FC04FE050E060E070E058
:103DE00004C0440F551F661F771F8A95D2F7409570
:103DF0005095609570958F2D86958695837082304D
:103E000019F1D8F48090340290903502A0903602D7
:103E1000B0903702813069F0442955296629772905
:103E2000CB01BA01682179218A219B210E94D20C01
:103E3000FECE482859286A287B28CB01BA0164297C
:103E4000752986299729F2CF44295529662977298A
:103E500040903402509035026090360270903702E4
:103E6000CB01BA016425752586259725DFCF869578
:103E7000DD2011F08F2D8170882309F4D8CE8E2D8E
:103E8000829586958770880F880F6E2D6F70462EED
:103E9000512C712C612C082E04C0440C551C661C3E
:103EA000771C0A94D2F740E050E0BA01E4FE0FC05C
:103EB0004FE050E060E070E004C0440F551F661F03
:103EC000771F8A95D2F740955095609570958F2D04
:103ED000869586958370823019F1D8F48090C80455
:103EE0009090C904A090CA04B090CB04813069F0CE
:103EF0004429552966297729CB01BA0168217921FE
:103F00008A219B210E944C0C92CE482859286A286D
:103F10007B28CB01BA016429752986299729F2CF1C
:103F200044295529662977294090C8045090C9042E
:103F30006090CA047090CB04CB01BA01642575254A
:103F400086259725DFCF9F2D9F70F92EDD2029F044
:103F5000892F0E94B10C8E2DCACE8E2D0E94FD0B92
:103F60008F2D0E94720C63CE8E2DE2EF8E1609F417
:103F700057C0E81578F0F0EF8F1649F121EF82165F
:103F800009F446C0DD2009F46FC0A11033CE8F2D97
:103F90008F7143C033EF831609F447C094EF891241
:103FA000F1CFDD2009F455C02F2D2F71F22E822F75
:103FB0000E94B10C8091390282FD07C038E0F39E67
:103FC000C0011124836080932F028F2D26C0DD2035
:103FD000D1F0E4E0EA1508F42ACE2F2D2F7161E02C
:103FE00070E080E090E004C0660F771F881F991F83
:103FF0002A95D2F74090C8045090C9046090CA0432
:104000007090CB049BCFF5E0FA1508F410CEE5CF05
:104010008F2D8F71DD2009F4A4CF0E94B10C07CE43
:104020008F2D8F71DD20C9F39CCF60E070E0CB0154
:10403000DD2009F467CF2F2D2F7161E070E080E063
:1040400090E004C0660F771F881F991F2A95D2F74A
:1040500059CF81E00E94950C81E08A1508F0E7CDE8
:1040600082E00E94950CE3CDAA2059F0893309F033
:1040700076CE9FEFE7EEF3E09150E040F040E1F7BD
:104080006CCE8F2D8F716DCFF0E1EF16FFE5FF063F
:1040900009F476CB21E1E2162FE5F20609F47ACB9A
:1040A000C70104978432910518F087970E9790F412
:1040B0008DE290E0A0E0B0E08093010190930201D6
:1040C000A0930301B09304010E941A199093C301B5
:1040D0008093C201F8018281882309F45EC1F7014F
:1040E000EB5BFC45E730F10508F0DDC0EA5AFF4C18
:1040F0000C94292E30E1E3163FE5F30609F444CB96
:1041000081E1E8168FE5F80659F682E03ECB85E0BE
:10411000DE01119601900D928A95E1F7F801228156
:1041200089819A812111A2C90E949F0BF82EA6C9EC
:1041300082722AECE2162CE5F20609F409CD08F0A9
:1041400084C095ECE9169CE5F90609F4EDCC08F07D
:1041500063C0F3ECEF16FCE5FF0609F4D9CC08F0D8
:10416000DECC32ECE3163CE5F30609F4AACC3AE5E2
:10417000E3163DE5F30609F41ACD08F0F3CCE1149B
:104180009CE5F90609F403CDEEEDEE16ECE5FE062E
:1041900009F40ACDF8018281E080F180882309F4D6
:1041A0000ACDC7010E94E210D82E682FC7010E94D5
:1041B000C70BB7018D2D0E94630F7C01882EF8017B
:1041C000D280A580A2943FE0A32280912F02877025
:1041D000A1F0CD2CDD2091F08F2D807F803421F057
:1041E00080E28E0D883048F082E00E94950C80912C
:1041F0002F028770CC24C3948111C12C3F2C3294A0
:104200002FE03222FBE0F31508F411CDE32DF0E0AE
:10421000E35AFF4C0C94292E97ECE9169CE5F9061D
:1042200009F48CCC08F485CCF8ECEF16FCE5FF061D
:1042300009F489CC48E657E164E777E129ECE21616
:104240002CE5F20609F468CC92CF3EECE3163CE58F
:10425000F30609F492C998F4ECECEE16ECE5FE06D0
:1042600009F47BCC4AEA57E16BEB77E1FDECEF1602
:10427000FCE5FF0608F450CC61E081E046CC26ED79
:10428000E2162CE5F20648F430EDE3163CE5F306C1
:1042900008F073C90E94EE1970C98DE5E816F8069A
:1042A00009F46BC964CF93EFE9169CE5F90609F4AC
:1042B000EACAC0F4F8EDEF16FCE5FF0609F4DFCA20
:1042C00029EDE2162CE5F20609F4E9CA37EDE3160A
:1042D0003CE5F306A9F426E241EE61EEC8010E9436
:1042E00026194BC985EFE8168CE5F80609F4D3CA00
:1042F00008F4CDCAE6EFEE16ECE5FE0609F481C03F
:104300001092C204F2E0EF16FCE5FF0608F4BFCB02
:1043100026E1E2162CE5F20630F0C7018A5F9C45E3
:10432000099708F0B4CB0E94220F90933902809332
:10433000380230E1E3163CE5F30609F477CB08F0E8
:10434000F6CA98E0E9169CE5F90609F465CB08F091
:10435000BFCAF4E0EF16FCE5FF0609F455CB08F000
:10436000A1CA32E0E3163CE5F30609F443CB83E04F
:10437000E8168CE5F80609F443CB60913802F0901A
:10438000390284E090E00E94712E6F2D82E290E06D
:104390000E94712E0E94A713F0C8F3EFEF16FCE500
:1043A000FF0609F470CA00F538EDE3163CE5F306A4
:1043B00009F465CA89EDE8168CE5F80609F46FCAB8
:1043C00097EDE9169CE5F90609F485CFF6E1EF16BD
:1043D000FCE5FF0609F0DECE8091C40181116FCBB0
:1043E00089E20E94790B66CBE5EFEE16ECE5FE065E
:1043F00009F451CA08F44BCA26EFE2162CE5F2067E
:1044000029F727E245EE66EE69CF1F93CF93DF933E
:104410008091CA01807FA9F48091C701882389F027
:104420008091FC01D091CB016091C5017091C601D2
:10443000A091C801B091C901C62FC72316E0D813B7
:1044400004C0DF91CF911F91089590E0109711F073
:10445000CF3F19F401968770F2CF189F9001199FF2
:10446000300D1124F901E453FE4F41814713F2CF7F
:1044700040814613EFCF42814111ECCF43815481FB
:104480004A1B5B0B483C510528F78091CA018F708D
:1044900080618093CA01F901EF52FE4F80818F70D5
:1044A0008061808385EC91E00E94FD19DF91CF91BE
:1044B0001F910C94F30BAF92BF92CF92DF92EF92C9
:1044C000FF920F931F93CF93DF93CDB7DEB7619722
:1044D0000FB6F894DEBF0FBECDBF8C0185E0F801AA
:1044E000DE011D9601900D928A95E1F7F801808119
:1044F0009181E28025ECA22E21E0B22E6091C801CC
:104500007091C9016115710509F43EC13091C50171
:104510004091C601232F24232F3F09F435C1C380C6
:10452000D480F090C701F601E61BF70BFF2009F4D9
:10453000FBC02091CA01522F507FE83CF10508F0E2
:10454000BBC0511178C0FE2C491321C038131FC0C5
:10455000E1101DC02F7020612093CA01C5010E9487
:10456000FD198091CA01F80185838F2D61960FB6E0
:10457000F894DEBF0FBECDBFDF91CF911F910F9199
:10458000FF90EF90DF90CF90BF90AF900895CD282F
:1045900029F0282F29232F3F09F014C120E0F22F02
:1045A000F170DF2E20FF3DC02091FC014091CB0136
:1045B00056E0241315C08D879E878D859E850E94A9
:1045C0002411292F22952F702230F8F0243020F565
:1045D0009F70F9F0F8019581907FD9F4D12C1FC01C
:1045E00030E0529FF001539FF00D1124E453FE4F31
:1045F0006181961306C06081861303C06281E61252
:1046000010C02F5F3F4F2770D4CF9F7011F08823C9
:1046100029F3805E883010F3C8010E94FD19FD2C3B
:10462000A4CFEE2009F4A1CF8091CA0181608093CC
:10463000CA01F12C9ACF491312C0381310C0E110EF
:104640000EC0F8012583C8010E94FD1986E0F8011B
:10465000A5ECB1E001900D928A95E1F786CF8D87A8
:104660009E878D859E850E942E11882309F1EE205C
:10467000F9F08091CA01803270F02091C50130912B
:10468000C60138872F831986DB86CA868C87CE01C0
:1046900007960E94FD1986E0F801A5ECB1E00190B3
:1046A0000D928A95E1F70E940522FF24F3945DCFD5
:1046B000C8010E94FD19F9CF51110AC085EC91E0A3
:1046C0000E94FD1986E0F50111928A95E9F7B1CFB4
:1046D00049130FC038130DC0E1100BC0F80125833A
:1046E000C8010E94FD1986E0F50111928A95E9F74B
:1046F0003CCF8D879E878D859E850E942E118823B5
:10470000B9F2EE20A9F28091CA01803220F2209104
:10471000C5013091C6013A8329831B82DD82CC8298
:104720008E83CE010196B5CFE83CF105E0F6FE2C74
:10473000EE2009F4BDCF491316C0381314C0809180
:10474000CA0180FD83CF982F907F09F47FCFF801B5
:104750008583903F09F477CF982F907F905F8F707B
:10476000892B858370CF8D879E878D859E850E943E
:104770002E11811190CF8091CA0181608093CA016E
:10478000C8010E94FD19F1CEEE2009F491CF8D876A
:104790009E878D859E850E942E11F82E882309F410
:1047A00087CF86E0F801A5ECB1E001900D928A95E3
:1047B000E1F78091C5019091C6010E9424110E94E9
:1047C0000522D3CE21E02E25EACE1F93CF93DF938F
:1047D000CDB7DEB767970FB6F894DEBF0FBECDBF7B
:1047E000342F4B8B252F5C8B6D8B7E8B8F8B8E8923
:1047F0009F896111109231021A8A198A3D872E878A
:104800006F87998B888B86E0FE013D96DE011796B7
:1048100001900D928A95E1F7CE0107960E945B22E6
:10482000882389F016E08091FC019091CB018913D7
:1048300049C067960FB6F894DEBF0FBECDBFDF91BB
:10484000CF911F91089586E0FE013796DE01119603
:1048500001900D928A95E1F78A859B85892B11F34A
:104860008F81988589238F3FE9F22091CB0130E039
:10487000C9010196877099274091FC0148171906D4
:1048800071F40E94A7131092CB011092FC0186E0F4
:10489000E5ECF1E0DF011D928A95E9F7C3CF96E0E0
:1048A000929FD001939FB00D1124A453BE4FFE01DF
:1048B000319601900D929A95E1F78093CB010E9479
:1048C000F30BB0CF819FC001112484539E4F0E94EF
:1048D0005B22882309F4ADCF8091FC0190E0019622
:1048E000877099278093FC019ECF8F929F92AF9201
:1048F000BF92DF92EF92FF920F931F93CF93DF93BC
:10490000CDE4D1E00DE312E0D12CEE24E394F12CC0
:104910008991F894E82FE295EF70F0E021A18F7073
:10492000A70102C0440F551F8A95E2F7CA01922FD2
:10493000982B91A392A18095892382A3789400C09B
:10494000E3E5F1E030E020E0B12CA12C4191A42F6F
:10495000A295AF70B0E090968C9190E04F7002C03D
:10496000959587954A95E2F780FD6FC0C701022EA5
:1049700002C0880F991F0A94E2F7A82AB92A2F5F6C
:104980003F4F2D30310511F7FE01319780810E9494
:10499000600E50EA5A95F1F7F80180819181A816CE
:1049A000B90609F455C0B182A08281E0D82A0E5F11
:1049B0001F4FF1E0C335DF0709F0AACFDD2009F46E
:1049C00049C081E0809384010E941A199093830169
:1049D0008093820180918201909183010E942B0B30
:1049E0000697E0F180913D0290913E0290939E04E3
:1049F00080939D0480913F02909140029093A00487
:104A000080939F0480914102909142029093A2046E
:104A10008093A10480914302909144029093A40456
:104A20008093A30480914502909146029093A6043E
:104A30008093A50480914702909148029093A80426
:104A40008093A7041092840109C090E080E095CF84
:104A500080E0ACCF809184018111BCCF8091C001F6
:104A60009091C1010E942B0B893E934060F16091AF
:104A7000BF01C62FD0E0662777276C1B7D0B072E62
:104A8000000C880B990B0E94432F27EA39E747E473
:104A90005DE30E94CF2F4B015C01BE01DD0F880B4F
:104AA000990B0E94432F9B01AC01C501B4010E94E8
:104AB000A62E0E94122F6093BF010E941A19909394
:104AC000C1018093C0018091C2019091C3010E94F5
:104AD0002B0B893C910560F084E690E0A0E0B0E00B
:104AE0008093010190930201A0930301B09304010C
:104AF0008D2DDF91CF911F910F91FF90EF90DF905F
:104B0000BF90AF909F908F900895CDB7DEB7AC97D0
:104B10000FB6F894DEBF0FBECDBF84B7877F84BFCA
:104B20000FB6F894A895809160008861809360002A
:104B3000109260000FBE80E890E00FB6F89480936A
:104B40006100909361000FBE85B7806885BF85B70F
:104B5000806885BF85E29BE090937901809378011E
:104B60000E949A090E94650A8091E2008460809305
:104B7000E20078948091B6048823A1F01091E900B6
:104B80001F709091EC00892F817090FD80E8182BA8
:104B90001092E9008091E80083FD0E94B2131F701B
:104BA0001093E90082E084BD93E095BD9AEF97BD34
:104BB00080936E0084EF0E94600E81EF0E94600E71
:104BC00086EC0E94600E82EC0E94600E87E60E94D6
:104BD000600E84E90E94600E03E511E050E6E52EC8
:104BE00051E0F52ED8018D918D010E94600EE016E6
:104BF000F106C1F7EDE3F2E089E492E0ADE9B4E05B
:104C0000119211921D921D928E179F07C9F790E085
:104C100080E00E946B2E8A3E9E4F11F00E94791612
:104C200082E090E00E945D2E80938D040E94220F0E
:104C300090933902809338020E947524EFE3FCE9D7
:104C40003197F1F700C000000E94752480919D0407
:104C500080FF17C06FEF83E290E00E94712E6FEF2C
:104C600084E290E00E94712E6FEF85E290E00E9456
:104C7000712E6FEF7FEF90E080E00E948F2E0E94F8
:104C8000681283E090E00E945D2E682F70E090E053
:104C900080E00E94D20C3E9A4698269A2E98259A39
:104CA0002D98279A2F988AE08093800089E180933D
:104CB00081008FEF9FEF90938700809386000E9482
:104CC000E41680919A0481FF0BC010923C0210926E
:104CD0003B0210923A0280916F00816080936F00D6
:104CE00083E290E00E945D2E813209F0A2C584E249
:104CF00090E00E945D2E863009F09BC585E290E031
:104D00000E945D2E803209F094C51092820480E8E2
:104D1000809355020E94C72C6DE070E085EF95E00E
:104D20000E94CA0E892BE9F58091820463E070E04D
:104D300081FDEEC182EF95E00E94CA0E892B89F5B4
:104D40006DE070E082EE95E00E94CA0E892B49F575
:104D50000E943A0B605A75418F4F9F4F60938604B3
:104D6000709387048093880490938904E2E8F2E0CA
:104D700080E092E0DF018C011D9201501040E1F7CC
:104D8000F0935B02E0935A028FEF9FEF90938504BC
:104D90008093840481E080938B0480938A04109232
:104DA00083040E94E41680914902811136C090E08C
:104DB00080E00E946B2E8A3E9E4F21F00E94791661
:104DC0000E94CC1788E090E00E94652E6093C30497
:104DD0007093C4048093C5049093C6046E7F71F4ED
:104DE0000E94CC1788E090E00E94652E6093C30477
:104DF0007093C4048093C5049093C6040E94BB0DB5
:104E000010929C048091C30480FF04C060E08695EA
:104E10000E94A01981E0809349028CE091E0909378
:104E20004B0280934A02FF24F3946624639480919A
:104E3000B60400E112E1853009F4C9C10E9475246D
:104E4000E82E81110E943A0BAEE8B4E0EDE9F4E0FF
:104E500010E000E0702F819191912D913D912817E4
:104E6000390709F4D9C12827392760E0CC24C39435
:104E7000D12CA9014C215D21452B09F4C7C169A39F
:104E80007AA39C012C213D2191E0232B09F490E091
:104E90009BA30E941A198160782F9DA38CA349A11E
:104EA0005AA16BA18DA10E94E523000F111FF801EB
:104EB000E257FB4F80819181C826D926D182C082DA
:104EC00080919C048823D1F180919B04E091C304DC
:104ED000E695E81BE0935102823009F0B4C1F0E09E
:104EE000EE5FF94FE4910E2F10E09EE7C92E93E19B
:104EF000D92E80915202882361F0109252020E94B2
:104F00001A199093500280934F02109254021092FB
:104F100053020E941A19E0914F02F09150028E1B29
:104F20009F0B8F3F9F4750F40E0F1F1F109350028F
:104F300000934F028FE492E0F601099580918B0473
:104F4000882309F4ADC082E892E090935B028093DD
:104F50005A0240915E0250915F026091600270912E
:104F600061022FB7F8948091560290915702A09158
:104F70005802B09159022FBF841B950BA60BB70B9B
:104F8000409101015091020160910301709104016F
:104F9000481759076A077B0708F04BC00E943A0B75
:104FA00060935E0270935F0280936002909361024F
:104FB00080915C0290E020915D0221114BC101962D
:104FC00066E070E00E94D42D80935C02853011F47D
:104FD000F0925D0280915C02E5E0F0E0E81BF109EF
:104FE000F7FF03C0F195E195F109FE2FEE27FF0FC2
:104FF000EB5FF94F80915A0290915B028258924088
:105000009C013E5F40E052E02130324010F0481BEE
:10501000590B2091840430918504480F591F61E099
:1050200070E08417950708F421C13093850420931C
:10503000840480918B04882371F020918404309142
:1050400085042115310539F08091830461E070E019
:10505000882309F426C180918A04882309F10E94DB
:105060003A0B0091860410918704209188043091B6
:105070008904601B710B820B930B6F3F7F4F8F4F27
:105080009F4770F480918B04882351F062E070E0B8
:1050900085E092E10E94CA0E892B11F410928A04D5
:1050A000E1100E94FA0E0E94DC0C90918C0489178A
:1050B00031F00E94DC0C80938C040E94BA0E809127
:1050C000B604843009F0B3CE83E08093E900809188
:1050D000E80082FFACCE8091E80090E085FF06C03A
:1050E0000E94B909882309F4A6C191E08091E800E3
:1050F0008B778093E800992309F499CEE981E150F8
:10510000E33108F011C2F0E0E759FF4C0C94292E6E
:105110008FEE95E011CE8091B604843009F446C03C
:1051200080E00E947B0D80E00E94BA0E10929C04E9
:1051300080914E02811116C060924E028091C3048C
:10514000982F917090934D028E7F8093C3042FEF20
:1051500030E742E0215030404040E1F700C000001D
:105160000E94381310924C0288E190E0A0E40FB640
:10517000F894A895809360000FBEA093600083B759
:10518000817F846083BF83B7816083BF7894889573
:1051900083B78E7F83BF0FB6F894A8958091600087
:1051A000886180936000109260000FBE8091B5040A
:1051B000882369F00E947524EDE9F4E081919191D2
:1051C000892B09F020C3B4E0E93AFB07B9F78091D5
:1051D000B604853009F49FCF0E94A7130E94E416FD
:1051E0000E94DC0C0E94BA0E10924E0280914D0279
:1051F000882349F08091C30481608093C30460E0F8
:1052000086950E94A0190E948A1918CE6F5FCC0C57
:10521000DD1C6D3009F02DCE0F5F1F4F06301105DC
:1052200009F018CE8FEF8EA38FA318A60E941A192B
:105230008160782F9AA789A74EA15FA168A58AA54A
:105240000E94E5233DCE00ED17E084E2C82E8BE0FE
:10525000D82E4FCE019766E070E00E94D42D809347
:105260005C028111B7CE10925D02B4CE1491DC01C4
:10527000AE57BD4F0C91101781F01C93DC0115E067
:10528000B695A7951A95E1F78B0102C0000F111F83
:10529000AA95E2F7D801202B3B2B01963196C1CE7F
:1052A0008F5F082F10E02B01082E02C0440C551C04
:1052B0000A94E2F7A90144215521452B89F39091E5
:1052C000820490FD44C08295880F80768093070108
:1052D0009801369527953695279520930A01815E8A
:1052E0008093080110920B0124E630E047E050E083
:1052F00065E071E088E70E94582D892B09F0ABCE5C
:10530000A80165E0440F551F6A95E1F7809182047A
:1053100080FD2BC04E575D4F04E610E020E230E0E8
:1053200060E488E70E947F2D892B09F094CE0E94CB
:10533000FA0EC201809590954090840450908504A7
:1053400048225922509285044092840484CE880FCA
:10535000880F880F8093070110920A01895F80935C
:10536000080183E080930B01BFCFE2E6F2E080E228
:10537000DF011D928A95E9F7E4E6F1E0FCA7EBA7CF
:1053800000E611E037E0A32E99249394ABA5BCA5C9
:105390002D91BCA7ABA7F80121908F01240E352ECB
:1053A000311CC1018E579D4F1C01E22FF0E0EE59D8
:1053B000FD4F30E020E07A2C721AB92C022E01C089
:1053C000BB0C0A94EAF7610190E0D6018D916D0162
:1053D0008B21672D691B6770862E062E000C770BBC
:1053E000B82F01C0BB0F8A94EAF78B2E7195619597
:1053F00071096770772701C086956A95EAF7882A50
:105400008081882A80829F5F9830F9F62F5F3F4F16
:1054100031962830310579F6E8E6F1E02BA53CA578
:10542000E217F30709F0B2CF04E610E020E230E023
:1054300042E652E075CF00E210E0CE0101966C0129
:105440008091E80085FD0AC08091E8008B77809309
:10545000E8000E94B909882399F347CE8091F100B2
:10546000D6018D936D010150110951F73ECE1A827C
:1054700089E08B8311C08A81823009F4F3C18330C3
:1054800091F1813009F050C00E943A0B0E942F2EFA
:105490006B837C838D839E838091B604843009F076
:1054A000C6CC1091E9001F709091EC00892F81709B
:1054B00090FD80E8182B82E08093E9008091E8005D
:1054C00080FF0DC050E040E060E270E0CE01019648
:1054D0000E94EA098091E8008E778093E8001F70AF
:1054E0001093E900A4CCDE011196EDE9F4E080818F
:1054F0009181329612969C93129713968C931397E0
:10550000129604E0E93AF00791F7C6CF8A8182301B
:1055100059F46B817C818D819E810E942F2E86E2C1
:1055200090E00E94712EB8CF8FEF8983B5CF4C8168
:105530006B818A810E94300F9827892798279E8344
:105540008D83AACFCD80DE80DC24CD24DC248A812B
:105550000B812AE1029F800111243CE9839F000D09
:10556000111D11248C8190E0880F991F080F191FBD
:105570006D2DC80187960E94712E6C2DC8018896EA
:10558000D0CF0E94521188CF8A81893091F08A3021
:10559000E9F08A81813871F110F5803809F07CCF0B
:1055A00020E04B816091C5048091C4040E941F17C4
:1055B00073CF8B8143E0849FC00111246FEF70E0B3
:1055C0000E94C02D862F0E94A00DE3CF8B818111F8
:1055D00003C00E94D611DDCF0E94EC11DACF8238D1
:1055E00059F1833809F058CF20E04091C6046C810E
:1055F0008B81DCCF60E08B810E94A0199B81809120
:10560000C304911111C08E7F8093C30410929C0437
:105610008FEF90E7A2E081509040A040E1F700C0FA
:1056200000000E94381338CF81608093C30460E08B
:1056300086950E94A01930CF8B818093C7042CCF10
:105640008A81893059F08A30C1F0813839F1D0F43B
:10565000803809F021CF8091C6040BCF80919A0445
:10566000869586958695BFEF8B9FC001112463E0D8
:1056700070E00E94C02D6B830FCF80919A048695B5
:105680008170F7CE823891F0833809F005CF809190
:10569000C4048B838091C5048C83FECE8091C304A7
:1056A00080FF02C08695E5CE80E0E3CE8091C704FE
:1056B000E0CE80919A040E94D1116091C304709150
:1056C000C4048091C5049091C6040E940D17E4CED5
:1056D00080E18A83E1CEFA8289E6CBCECA80DB8084
:1056E000DC24CD24DC248E010F5F1F4FAC80A00E84
:1056F000B12EB11CC60189569D4F0A151B0509F430
:10570000CBCEE9E6CE16E1E0DE0658F40E945D2E2F
:10571000D80114968C93FFEFCF1ADF0A0F5F1F4F4B
:10572000E9CFF8011482F7CF0A811B8110270127E6
:1057300010279E012F5F3F4F5901CC80C00ED12E04
:10574000D11CC80189569D4FC016D10609F4A4CEBC
:10575000093631E0130728F4D50114966C910E94A4
:10576000712EBFEFAB1ABB0A0F5F1F4FEACF0E942B
:10577000C11192CE84E0ADCFCA80DB80DC24CD2481
:10578000DC248E010F5F1F4FAC80A00EB12EB11C28
:10579000C6018796A016B10609F47ECEE0E7CE16C4
:1057A000E2E0DE0658F40E945D2ED80114968C9338
:1057B000FFEFCF1ADF0A0F5F1F4FEACFF801148205
:1057C000F7CF0A811B811027012710279E012F5F29
:1057D0003F4F5901CC80C00ED12ED11CC8018796F5
:1057E000C016D10609F458CE003732E0130728F46A
:1057F000D50114966C910E94712EBFEFAB1ABB0AB3
:105800000F5F1F4FEBCF09BD19BD09B400FEFDCFDF
:105810008091D8008F7D8093D8008091E0008260D5
:105820008093E0008091E00081FDFCCF0E94A713EF
:10583000CECC60E086E290E00E94712E0E94521170
:105840000E94C11161E283E290E00E94712E66E045
:1058500084E290E00E94712E60E285E290E00E9476
:10586000712E53CA86E290E00E945D2E1B821C823C
:105870001D828E8311CE1F921FB61F9211248F930B
:105880009F93AF93BF9380914C02811113C080917D
:10589000560290915702A0915802B0915902419638
:1058A000A11DB11D8093560290935702A0935802F8
:1058B000B0935902BF91AF919F918F911F901FBEDE
:1058C0001F9018951F920F920FB60F9211242F93CD
:1058D0003F934F935F936F937F938F939F93AF9378
:1058E000BF93EF93FF9380913B0290913C0201960E
:1058F00068EB75E00E94C02D90933C0280933B02C0
:105900006BE070E00E94C02D6F7780913A02823088
:1059100041F4603451F480916F008E7F80936F006A
:1059200004C0813011F46F37B1F3E62FF0E0E05C92
:10593000FD4FE49121E031E0E29FC001E39F900D33
:10594000112463E070E00E94C02D80919A04869536
:1059500086958695282F269FC001279F900D11249C
:105960000E943E0D90938D0080938C00FF91EF91EB
:10597000BF91AF919F918F917F916F915F914F9167
:105980003F912F910F900FBE0F901F90189510927E
:10599000B9008CE08093B8000895EF92FF920F93C6
:1059A0001F93CF93DF93182FEB011092BC0084EA72
:1059B0008093BC000E941A197C018091BC0087FF73
:1059C00027C08091B900887F883029F08091B90084
:1059D000887F8031D9F51093BB0084E88093BC00A8
:1059E0000E941A198C018091BC0087FF24C020916D
:1059F000B900287F90E080E02831B1F081E090E0AC
:105A0000203411F490E080E09195819591090CC0CB
:105A1000CF3FDC0791F20E941A198E199F098C174B
:105A20009D0758F28EEF9FEFDF91CF911F910F915D
:105A3000FF90EF900895CF3FDC07A9F20E941A195A
:105A4000801B910B8C179D0770F2ECCF8FEF9FEFAF
:105A5000EBCF0F931F93CF93DF93EB018093BB00AA
:105A600084E88093BC000E941A198C018091BC00CC
:105A700087FF11C02091B900287F81E090E0283293
:105A800011F490E080E0919581959109DF91CF919B
:105A90001F910F910895CF3FDC0741F30E941A191F
:105AA000801B910B8C179D0708F38EEF9FEFEECFB5
:105AB000CF92DF92EF92FF920F931F93CF93DF93DA
:105AC0006B018A017901B9010E94CD2CE6010C0D10
:105AD0001D1DC017D10761F424E92093BC00DF919C
